{
  "_format": "hh-sol-artifact-1",
  "contractName": "Staking",
  "sourceName": "contracts/Staking.sol",
  "abi": [
    {
      "inputs": [
        {
          "internalType": "address",
          "name": "_tokenA",
          "type": "address"
        },
        {
          "internalType": "address",
          "name": "_tokenB",
          "type": "address"
        }
      ],
      "stateMutability": "nonpayable",
      "type": "constructor"
    },
    {
      "inputs": [],
      "name": "MathOverflowedMulDiv",
      "type": "error"
    },
    {
      "inputs": [
        {
          "internalType": "address",
          "name": "owner",
          "type": "address"
        }
      ],
      "name": "OwnableInvalidOwner",
      "type": "error"
    },
    {
      "inputs": [
        {
          "internalType": "address",
          "name": "account",
          "type": "address"
        }
      ],
      "name": "OwnableUnauthorizedAccount",
      "type": "error"
    },
    {
      "anonymous": false,
      "inputs": [
        {
          "indexed": true,
          "internalType": "address",
          "name": "user",
          "type": "address"
        },
        {
          "indexed": false,
          "internalType": "uint256",
          "name": "amount",
          "type": "uint256"
        }
      ],
      "name": "Deposited",
      "type": "event"
    },
    {
      "anonymous": false,
      "inputs": [
        {
          "indexed": true,
          "internalType": "address",
          "name": "user",
          "type": "address"
        },
        {
          "indexed": false,
          "internalType": "uint256",
          "name": "tokenId",
          "type": "uint256"
        }
      ],
      "name": "NFTDeposited",
      "type": "event"
    },
    {
      "anonymous": false,
      "inputs": [
        {
          "indexed": true,
          "internalType": "address",
          "name": "user",
          "type": "address"
        },
        {
          "indexed": false,
          "internalType": "uint256",
          "name": "tokenId",
          "type": "uint256"
        }
      ],
      "name": "NFTMinted",
      "type": "event"
    },
    {
      "anonymous": false,
      "inputs": [
        {
          "indexed": true,
          "internalType": "address",
          "name": "user",
          "type": "address"
        },
        {
          "indexed": false,
          "internalType": "uint256",
          "name": "tokenId",
          "type": "uint256"
        }
      ],
      "name": "NFTWithdrawn",
      "type": "event"
    },
    {
      "anonymous": false,
      "inputs": [
        {
          "indexed": true,
          "internalType": "address",
          "name": "previousOwner",
          "type": "address"
        },
        {
          "indexed": true,
          "internalType": "address",
          "name": "newOwner",
          "type": "address"
        }
      ],
      "name": "OwnershipTransferred",
      "type": "event"
    },
    {
      "anonymous": false,
      "inputs": [
        {
          "indexed": true,
          "internalType": "address",
          "name": "user",
          "type": "address"
        },
        {
          "indexed": false,
          "internalType": "uint256",
          "name": "reward",
          "type": "uint256"
        }
      ],
      "name": "RewardClaimed",
      "type": "event"
    },
    {
      "anonymous": false,
      "inputs": [
        {
          "indexed": true,
          "internalType": "address",
          "name": "user",
          "type": "address"
        },
        {
          "indexed": false,
          "internalType": "uint256",
          "name": "amount",
          "type": "uint256"
        }
      ],
      "name": "Withdrawn",
      "type": "event"
    },
    {
      "inputs": [],
      "name": "BASE_APR",
      "outputs": [
        {
          "internalType": "uint256",
          "name": "",
          "type": "uint256"
        }
      ],
      "stateMutability": "view",
      "type": "function"
    },
    {
      "inputs": [],
      "name": "LOCK_TIME",
      "outputs": [
        {
          "internalType": "uint256",
          "name": "",
          "type": "uint256"
        }
      ],
      "stateMutability": "view",
      "type": "function"
    },
    {
      "inputs": [],
      "name": "MINT_THRESHOLD",
      "outputs": [
        {
          "internalType": "uint256",
          "name": "",
          "type": "uint256"
        }
      ],
      "stateMutability": "view",
      "type": "function"
    },
    {
      "inputs": [
        {
          "internalType": "address",
          "name": "user",
          "type": "address"
        }
      ],
      "name": "calculateReward",
      "outputs": [
        {
          "internalType": "uint256",
          "name": "",
          "type": "uint256"
        }
      ],
      "stateMutability": "view",
      "type": "function"
    },
    {
      "inputs": [],
      "name": "claimReward",
      "outputs": [],
      "stateMutability": "nonpayable",
      "type": "function"
    },
    {
      "inputs": [
        {
          "internalType": "uint256",
          "name": "_amount",
          "type": "uint256"
        }
      ],
      "name": "deposit",
      "outputs": [],
      "stateMutability": "nonpayable",
      "type": "function"
    },
    {
      "inputs": [
        {
          "internalType": "uint256",
          "name": "tokenId",
          "type": "uint256"
        }
      ],
      "name": "depositNFT",
      "outputs": [],
      "stateMutability": "nonpayable",
      "type": "function"
    },
    {
      "inputs": [
        {
          "internalType": "address",
          "name": "",
          "type": "address"
        },
        {
          "internalType": "uint256",
          "name": "",
          "type": "uint256"
        }
      ],
      "name": "depositedNFTs",
      "outputs": [
        {
          "internalType": "uint256",
          "name": "",
          "type": "uint256"
        }
      ],
      "stateMutability": "view",
      "type": "function"
    },
    {
      "inputs": [
        {
          "internalType": "address",
          "name": "",
          "type": "address"
        }
      ],
      "name": "deposits",
      "outputs": [
        {
          "internalType": "uint256",
          "name": "counter",
          "type": "uint256"
        },
        {
          "internalType": "uint256",
          "name": "amount",
          "type": "uint256"
        },
        {
          "internalType": "uint256",
          "name": "reward",
          "type": "uint256"
        },
        {
          "internalType": "uint256",
          "name": "timestamp",
          "type": "uint256"
        },
        {
          "internalType": "uint256",
          "name": "nftDepositedTime",
          "type": "uint256"
        },
        {
          "internalType": "uint256",
          "name": "bonusAPR",
          "type": "uint256"
        }
      ],
      "stateMutability": "view",
      "type": "function"
    },
    {
      "inputs": [
        {
          "internalType": "address",
          "name": "user",
          "type": "address"
        }
      ],
      "name": "getDepositInfo",
      "outputs": [
        {
          "internalType": "uint256",
          "name": "amount",
          "type": "uint256"
        },
        {
          "internalType": "uint256",
          "name": "timestamp",
          "type": "uint256"
        }
      ],
      "stateMutability": "view",
      "type": "function"
    },
    {
      "inputs": [
        {
          "internalType": "address",
          "name": "user",
          "type": "address"
        }
      ],
      "name": "getDepositedNFTs",
      "outputs": [
        {
          "internalType": "uint256[]",
          "name": "",
          "type": "uint256[]"
        }
      ],
      "stateMutability": "view",
      "type": "function"
    },
    {
      "inputs": [],
      "name": "lockTimestamp",
      "outputs": [
        {
          "internalType": "uint256",
          "name": "",
          "type": "uint256"
        }
      ],
      "stateMutability": "view",
      "type": "function"
    },
    {
      "inputs": [
        {
          "internalType": "uint256",
          "name": "newBaseAPR",
          "type": "uint256"
        }
      ],
      "name": "modifyBaseAPR",
      "outputs": [],
      "stateMutability": "nonpayable",
      "type": "function"
    },
    {
      "inputs": [],
      "name": "owner",
      "outputs": [
        {
          "internalType": "address",
          "name": "",
          "type": "address"
        }
      ],
      "stateMutability": "view",
      "type": "function"
    },
    {
      "inputs": [],
      "name": "renounceOwnership",
      "outputs": [],
      "stateMutability": "nonpayable",
      "type": "function"
    },
    {
      "inputs": [],
      "name": "tokenA",
      "outputs": [
        {
          "internalType": "contract TokenA",
          "name": "",
          "type": "address"
        }
      ],
      "stateMutability": "view",
      "type": "function"
    },
    {
      "inputs": [],
      "name": "tokenB",
      "outputs": [
        {
          "internalType": "contract TokenB",
          "name": "",
          "type": "address"
        }
      ],
      "stateMutability": "view",
      "type": "function"
    },
    {
      "inputs": [
        {
          "internalType": "address",
          "name": "",
          "type": "address"
        }
      ],
      "name": "totalDepositedAmount",
      "outputs": [
        {
          "internalType": "uint256",
          "name": "",
          "type": "uint256"
        }
      ],
      "stateMutability": "view",
      "type": "function"
    },
    {
      "inputs": [
        {
          "internalType": "address",
          "name": "newOwner",
          "type": "address"
        }
      ],
      "name": "transferOwnership",
      "outputs": [],
      "stateMutability": "nonpayable",
      "type": "function"
    },
    {
      "inputs": [],
      "name": "withdraw",
      "outputs": [],
      "stateMutability": "nonpayable",
      "type": "function"
    },
    {
      "inputs": [
        {
          "internalType": "uint256",
          "name": "tokenId",
          "type": "uint256"
        }
      ],
      "name": "withdrawNFT",
      "outputs": [],
      "stateMutability": "nonpayable",
      "type": "function"
    }
  ],
  "bytecode": "0x608060405260086003553480156200001657600080fd5b5060405162002aaf38038062002aaf83398181016040528101906200003c91906200027c565b33600073ffffffffffffffffffffffffffffffffffffffff168173ffffffffffffffffffffffffffffffffffffffff1603620000b25760006040517f1e4fbdf7000000000000000000000000000000000000000000000000000000008152600401620000a99190620002d4565b60405180910390fd5b620000c3816200014e60201b60201c565b5081600160006101000a81548173ffffffffffffffffffffffffffffffffffffffff021916908373ffffffffffffffffffffffffffffffffffffffff16021790555080600260006101000a81548173ffffffffffffffffffffffffffffffffffffffff021916908373ffffffffffffffffffffffffffffffffffffffff1602179055505050620002f1565b60008060009054906101000a900473ffffffffffffffffffffffffffffffffffffffff169050816000806101000a81548173ffffffffffffffffffffffffffffffffffffffff021916908373ffffffffffffffffffffffffffffffffffffffff1602179055508173ffffffffffffffffffffffffffffffffffffffff168173ffffffffffffffffffffffffffffffffffffffff167f8be0079c531659141344cd1fd0a4f28419497f9722a3daafe3b4186f6b6457e060405160405180910390a35050565b600080fd5b600073ffffffffffffffffffffffffffffffffffffffff82169050919050565b6000620002448262000217565b9050919050565b620002568162000237565b81146200026257600080fd5b50565b60008151905062000276816200024b565b92915050565b6000806040838503121562000296576200029562000212565b5b6000620002a68582860162000265565b9250506020620002b98582860162000265565b9150509250929050565b620002ce8162000237565b82525050565b6000602082019050620002eb6000830184620002c3565b92915050565b6127ae80620003016000396000f3fe608060405234801561001057600080fd5b50600436106101375760003560e01c80638da5cb5b116100b8578063d82e39621161007c578063d82e3962146102f3578063e4fd18c914610323578063e91a7ca614610341578063f2fde38b1461035d578063f6e3912414610379578063fc7e286d146103a957610137565b80638da5cb5b14610261578063b36b26c51461027f578063b544bf83146102af578063b6b55f25146102cd578063b88a802f146102e957610137565b806349b1e3c1116100ff57806349b1e3c1146101bc5780635287ce12146101d85780635f64b55b14610209578063715018a6146102275780637da830b41461023157610137565b8063023245d71461013c5780630fc63d101461015857806313455128146101765780633ccfd60b14610194578063413d9c3a1461019e575b600080fd5b61015660048036038101906101519190611d49565b6103de565b005b6101606106c2565b60405161016d9190611df5565b60405180910390f35b61017e6106e8565b60405161018b9190611e1f565b60405180910390f35b61019c6106f6565b005b6101a6610a5b565b6040516101b39190611e1f565b60405180910390f35b6101d660048036038101906101d19190611d49565b610a60565b005b6101f260048036038101906101ed9190611e78565b610a72565b604051610200929190611ea5565b60405180910390f35b610211610b13565b60405161021e9190611eef565b60405180910390f35b61022f610b39565b005b61024b60048036038101906102469190611e78565b610b4d565b6040516102589190611e1f565b60405180910390f35b610269610b65565b6040516102769190611f19565b60405180910390f35b61029960048036038101906102949190611e78565b610b8e565b6040516102a69190611ff2565b60405180910390f35b6102b7610c25565b6040516102c49190611e1f565b60405180910390f35b6102e760048036038101906102e29190611d49565b610c2b565b005b6102f1611104565b005b61030d60048036038101906103089190611e78565b61138d565b60405161031a9190611e1f565b60405180910390f35b61032b6115d5565b6040516103389190611e1f565b60405180910390f35b61035b60048036038101906103569190611d49565b6115db565b005b61037760048036038101906103729190611e78565b6117cc565b005b610393600480360381019061038e9190612014565b611852565b6040516103a09190611e1f565b60405180910390f35b6103c360048036038101906103be9190611e78565b611883565b6040516103d596959493929190612054565b60405180910390f35b600454421015610423576040517f08c379a000000000000000000000000000000000000000000000000000000000815260040161041a90612112565b60405180910390fd5b61042d33826118bf565b61046c576040517f08c379a00000000000000000000000000000000000000000000000000000000081526004016104639061217e565b60405180910390fd5b600260009054906101000a900473ffffffffffffffffffffffffffffffffffffffff1673ffffffffffffffffffffffffffffffffffffffff166323b872dd3033846040518463ffffffff1660e01b81526004016104cb9392919061219e565b600060405180830381600087803b1580156104e557600080fd5b505af11580156104f9573d6000803e3d6000fd5b505050506000600760003373ffffffffffffffffffffffffffffffffffffffff1673ffffffffffffffffffffffffffffffffffffffff16815260200190815260200160002080548060200260200160405190810160405280929190818152602001828054801561058857602002820191906000526020600020905b815481526020019060010190808311610574575b505050505090506000600660003373ffffffffffffffffffffffffffffffffffffffff1673ffffffffffffffffffffffffffffffffffffffff16815260200190815260200160002090506000816001015411156106095760006105ea3361138d565b9050808260020160008282546106009190612204565b92505081905550505b60008251826005015461061c9190612238565b6003546106299190612204565b905060035481111561065257600282600501600082825461064a919061227a565b925050819055505b42826003018190555042826004018190555061066e33856119aa565b3373ffffffffffffffffffffffffffffffffffffffff167f2aa1b4c95f3b2da9c955947fca584743ea0d457708fadf209c093061e98c4ccb856040516106b49190611e1f565b60405180910390a250505050565b600160009054906101000a900473ffffffffffffffffffffffffffffffffffffffff1681565b69d3c21bcecceda100000081565b6000600660003373ffffffffffffffffffffffffffffffffffffffff1673ffffffffffffffffffffffffffffffffffffffff16815260200190815260200160002090506000816001015411610780576040517f08c379a0000000000000000000000000000000000000000000000000000000008152600401610777906122fa565b60405180910390fd5b6004544210156107c5576040517f08c379a00000000000000000000000000000000000000000000000000000000081526004016107bc90612366565b60405180910390fd5b600081600201546107d53361138d565b6107df9190612204565b9050600160009054906101000a900473ffffffffffffffffffffffffffffffffffffffff1673ffffffffffffffffffffffffffffffffffffffff1663a9059cbb3384600101546040518363ffffffff1660e01b8152600401610842929190612386565b6020604051808303816000875af1158015610861573d6000803e3d6000fd5b505050506040513d601f19601f8201168201806040525081019061088591906123e7565b6108c4576040517f08c379a00000000000000000000000000000000000000000000000000000000081526004016108bb90612460565b60405180910390fd5b600160009054906101000a900473ffffffffffffffffffffffffffffffffffffffff1673ffffffffffffffffffffffffffffffffffffffff166315490ebb33836040518363ffffffff1660e01b8152600401610921929190612386565b6020604051808303816000875af1158015610940573d6000803e3d6000fd5b505050506040513d601f19601f8201168201806040525081019061096491906123e7565b6109a3576040517f08c379a000000000000000000000000000000000000000000000000000000000815260040161099a906124cc565b60405180910390fd5b60008260010181905550600082600201819055503373ffffffffffffffffffffffffffffffffffffffff167f7084f5476618d8e60b11ef0d7d3f06914655adb8793e28ff7f018d4c76d505d58360010154604051610a019190611e1f565b60405180910390a23373ffffffffffffffffffffffffffffffffffffffff167f106f923f993c2149d49b4255ff723acafa1f2d94393f561d3eda32ae348f724182604051610a4f9190611e1f565b60405180910390a25050565b601e81565b610a68611ab4565b8060038190555050565b6000806000600660008573ffffffffffffffffffffffffffffffffffffffff1673ffffffffffffffffffffffffffffffffffffffff1681526020019081526020016000206040518060c001604052908160008201548152602001600182015481526020016002820154815260200160038201548152602001600482015481526020016005820154815250509050806020015181606001519250925050915091565b600260009054906101000a900473ffffffffffffffffffffffffffffffffffffffff1681565b610b41611ab4565b610b4b6000611b3b565b565b60056020528060005260406000206000915090505481565b60008060009054906101000a900473ffffffffffffffffffffffffffffffffffffffff16905090565b6060600760008373ffffffffffffffffffffffffffffffffffffffff1673ffffffffffffffffffffffffffffffffffffffff168152602001908152602001600020805480602002602001604051908101604052809291908181526020018280548015610c1957602002820191906000526020600020905b815481526020019060010190808311610c05575b50505050509050919050565b60045481565b60008111610c6e576040517f08c379a0000000000000000000000000000000000000000000000000000000008152600401610c6590612538565b60405180910390fd5b600160009054906101000a900473ffffffffffffffffffffffffffffffffffffffff1673ffffffffffffffffffffffffffffffffffffffff166323b872dd3330846040518463ffffffff1660e01b8152600401610ccd9392919061219e565b6020604051808303816000875af1158015610cec573d6000803e3d6000fd5b505050506040513d601f19601f82011682018060405250810190610d1091906123e7565b610d4f576040517f08c379a0000000000000000000000000000000000000000000000000000000008152600401610d46906125a4565b60405180910390fd5b6000600660003373ffffffffffffffffffffffffffffffffffffffff1673ffffffffffffffffffffffffffffffffffffffff16815260200190815260200160002090506000816000015403610dac57428160030181905550610dd6565b6000610db73361138d565b905080826002016000828254610dcd9190612204565b92505081905550505b600081600401541115610ded574281600401819055505b81816001016000828254610e019190612204565b9250508190555081600560003373ffffffffffffffffffffffffffffffffffffffff1673ffffffffffffffffffffffffffffffffffffffff1681526020019081526020016000206000828254610e579190612204565b925050819055506001816000016000828254610e739190612204565b92505081905550428160030181905550601e42610e909190612204565b6004819055506000600260009054906101000a900473ffffffffffffffffffffffffffffffffffffffff1673ffffffffffffffffffffffffffffffffffffffff1663f41d3f69336040518263ffffffff1660e01b8152600401610ef39190611f19565b602060405180830381865afa158015610f10573d6000803e3d6000fd5b505050506040513d601f19601f82011682018060405250810190610f3491906125d9565b90506000600560003373ffffffffffffffffffffffffffffffffffffffff1673ffffffffffffffffffffffffffffffffffffffff16815260200190815260200160002054905060008269d3c21bcecceda100000083610f939190612635565b610f9d919061227a565b905060005b818110156110ae576000600260009054906101000a900473ffffffffffffffffffffffffffffffffffffffff1673ffffffffffffffffffffffffffffffffffffffff166354ba0f27336040518263ffffffff1660e01b81526004016110079190611f19565b6020604051808303816000875af1158015611026573d6000803e3d6000fd5b505050506040513d601f19601f8201168201806040525081019061104a91906125d9565b90503373ffffffffffffffffffffffffffffffffffffffff167f4cc0a9c4a99ddc700de1af2c9f916a7cbfdb71f14801ccff94061ad1ef8a8040826040516110929190611e1f565b60405180910390a25080806110a690612666565b915050610fa2565b503373ffffffffffffffffffffffffffffffffffffffff167f2da466a7b24304f47e87fa2e1e5a81b9831ce54fec19055ce277ca2f39ba42c4866040516110f59190611e1f565b60405180910390a25050505050565b6000600660003373ffffffffffffffffffffffffffffffffffffffff1673ffffffffffffffffffffffffffffffffffffffff1681526020019081526020016000209050600081600101541161118e576040517f08c379a0000000000000000000000000000000000000000000000000000000008152600401611185906122fa565b60405180910390fd5b6004544210156111d3576040517f08c379a00000000000000000000000000000000000000000000000000000000081526004016111ca90612366565b60405180910390fd5b600081600201546111e33361138d565b6111ed9190612204565b905060008111611232576040517f08c379a0000000000000000000000000000000000000000000000000000000008152600401611229906126fa565b60405180910390fd5b600160009054906101000a900473ffffffffffffffffffffffffffffffffffffffff1673ffffffffffffffffffffffffffffffffffffffff166315490ebb33836040518363ffffffff1660e01b815260040161128f929190612386565b6020604051808303816000875af11580156112ae573d6000803e3d6000fd5b505050506040513d601f19601f820116820180604052508101906112d291906123e7565b611311576040517f08c379a0000000000000000000000000000000000000000000000000000000008152600401611308906124cc565b60405180910390fd5b6000826002018190555042826003018190555060008260040154111561133b574282600401819055505b3373ffffffffffffffffffffffffffffffffffffffff167f106f923f993c2149d49b4255ff723acafa1f2d94393f561d3eda32ae348f7241826040516113819190611e1f565b60405180910390a25050565b600080600660008473ffffffffffffffffffffffffffffffffffffffff1673ffffffffffffffffffffffffffffffffffffffff1681526020019081526020016000206040518060c0016040529081600082015481526020016001820154815260200160028201548152602001600382015481526020016004820154815260200160058201548152505090506000600760008573ffffffffffffffffffffffffffffffffffffffff1673ffffffffffffffffffffffffffffffffffffffff1681526020019081526020016000208054806020026020016040519081016040528092919081815260200182805480156114a357602002820191906000526020600020905b81548152602001906001019080831161148f575b5050505050905060008260200151036114c1576000925050506115d0565b60008260600151426114d3919061227a565b9050600082518460a001516114e89190612238565b6003546114f59190612204565b905060008060008660800151905060008111156115855761154787606001518261151f919061227a565b60035489602001516115319190612238565b61153b9190612238565b600163bbf81e00611bff565b925061157e8142611558919061227a565b8589602001516115689190612238565b6115729190612238565b600163bbf81e00611bff565b91506115b4565b6115b185600354896020015161159b9190612238565b6115a59190612238565b600163bbf81e00611bff565b92505b600082846115c29190612204565b905080985050505050505050505b919050565b60035481565b600260009054906101000a900473ffffffffffffffffffffffffffffffffffffffff1673ffffffffffffffffffffffffffffffffffffffff166323b872dd3330846040518463ffffffff1660e01b815260040161163a9392919061219e565b600060405180830381600087803b15801561165457600080fd5b505af1158015611668573d6000803e3d6000fd5b505050506000600660003373ffffffffffffffffffffffffffffffffffffffff1673ffffffffffffffffffffffffffffffffffffffff16815260200190815260200160002090506000816001015411156116e65760006116c73361138d565b9050808260020160008282546116dd9190612204565b92505081905550505b60028160050160008282546116fb9190612204565b92505081905550428160040181905550600760003373ffffffffffffffffffffffffffffffffffffffff1673ffffffffffffffffffffffffffffffffffffffff1681526020019081526020016000208290806001815401808255809150506001900390600052602060002001600090919091909150554281600301819055503373ffffffffffffffffffffffffffffffffffffffff167f1c4b8380f61aea3d5d98cbadaf2e6b2e4f3d8ca8c0fce1290b26ac267158745f836040516117c09190611e1f565b60405180910390a25050565b6117d4611ab4565b600073ffffffffffffffffffffffffffffffffffffffff168173ffffffffffffffffffffffffffffffffffffffff16036118465760006040517f1e4fbdf700000000000000000000000000000000000000000000000000000000815260040161183d9190611f19565b60405180910390fd5b61184f81611b3b565b50565b6007602052816000526040600020818154811061186e57600080fd5b90600052602060002001600091509150505481565b60066020528060005260406000206000915090508060000154908060010154908060020154908060030154908060040154908060050154905086565b600080600760008573ffffffffffffffffffffffffffffffffffffffff1673ffffffffffffffffffffffffffffffffffffffff16815260200190815260200160002080548060200260200160405190810160405280929190818152602001828054801561194b57602002820191906000526020600020905b815481526020019060010190808311611937575b5050505050905060005b815181101561199d57838282815181106119725761197161271a565b5b60200260200101510361198a576001925050506119a4565b808061199590612666565b915050611955565b5060009150505b92915050565b6000600760008473ffffffffffffffffffffffffffffffffffffffff1673ffffffffffffffffffffffffffffffffffffffff168152602001908152602001600020905060005b8180549050811015611aae5782828281548110611a1057611a0f61271a565b5b906000526020600020015403611a9b578160018380549050611a32919061227a565b81548110611a4357611a4261271a565b5b9060005260206000200154828281548110611a6157611a6061271a565b5b906000526020600020018190555081805480611a8057611a7f612749565b5b60019003818190600052602060002001600090559055611aae565b8080611aa690612666565b9150506119f0565b50505050565b611abc611d06565b73ffffffffffffffffffffffffffffffffffffffff16611ada610b65565b73ffffffffffffffffffffffffffffffffffffffff1614611b3957611afd611d06565b6040517f118cdaa7000000000000000000000000000000000000000000000000000000008152600401611b309190611f19565b60405180910390fd5b565b60008060009054906101000a900473ffffffffffffffffffffffffffffffffffffffff169050816000806101000a81548173ffffffffffffffffffffffffffffffffffffffff021916908373ffffffffffffffffffffffffffffffffffffffff1602179055508173ffffffffffffffffffffffffffffffffffffffff168173ffffffffffffffffffffffffffffffffffffffff167f8be0079c531659141344cd1fd0a4f28419497f9722a3daafe3b4186f6b6457e060405160405180910390a35050565b6000808385029050600080198587098281108382030391505060008103611c3a57838281611c3057611c2f612606565b5b0492505050611cff565b808411611c73576040517f227bc15300000000000000000000000000000000000000000000000000000000815260040160405180910390fd5b600084868809905082811182039150808303925060008560000386169050808604955080840493506001818260000304019050808302841793506000600287600302189050808702600203810290508087026002038102905080870260020381029050808702600203810290508087026002038102905080870260020381029050808502955050505050505b9392505050565b600033905090565b600080fd5b6000819050919050565b611d2681611d13565b8114611d3157600080fd5b50565b600081359050611d4381611d1d565b92915050565b600060208284031215611d5f57611d5e611d0e565b5b6000611d6d84828501611d34565b91505092915050565b600073ffffffffffffffffffffffffffffffffffffffff82169050919050565b6000819050919050565b6000611dbb611db6611db184611d76565b611d96565b611d76565b9050919050565b6000611dcd82611da0565b9050919050565b6000611ddf82611dc2565b9050919050565b611def81611dd4565b82525050565b6000602082019050611e0a6000830184611de6565b92915050565b611e1981611d13565b82525050565b6000602082019050611e346000830184611e10565b92915050565b6000611e4582611d76565b9050919050565b611e5581611e3a565b8114611e6057600080fd5b50565b600081359050611e7281611e4c565b92915050565b600060208284031215611e8e57611e8d611d0e565b5b6000611e9c84828501611e63565b91505092915050565b6000604082019050611eba6000830185611e10565b611ec76020830184611e10565b9392505050565b6000611ed982611dc2565b9050919050565b611ee981611ece565b82525050565b6000602082019050611f046000830184611ee0565b92915050565b611f1381611e3a565b82525050565b6000602082019050611f2e6000830184611f0a565b92915050565b600081519050919050565b600082825260208201905092915050565b6000819050602082019050919050565b611f6981611d13565b82525050565b6000611f7b8383611f60565b60208301905092915050565b6000602082019050919050565b6000611f9f82611f34565b611fa98185611f3f565b9350611fb483611f50565b8060005b83811015611fe5578151611fcc8882611f6f565b9750611fd783611f87565b925050600181019050611fb8565b5085935050505092915050565b6000602082019050818103600083015261200c8184611f94565b905092915050565b6000806040838503121561202b5761202a611d0e565b5b600061203985828601611e63565b925050602061204a85828601611d34565b9150509250929050565b600060c0820190506120696000830189611e10565b6120766020830188611e10565b6120836040830187611e10565b6120906060830186611e10565b61209d6080830185611e10565b6120aa60a0830184611e10565b979650505050505050565b600082825260208201905092915050565b7f546f6b656e7320617265207374696c6c206c6f636b6564210000000000000000600082015250565b60006120fc6018836120b5565b9150612107826120c6565b602082019050919050565b6000602082019050818103600083015261212b816120ef565b9050919050565b7f4e4654206e6f74206465706f7369746564000000000000000000000000000000600082015250565b60006121686011836120b5565b915061217382612132565b602082019050919050565b600060208201905081810360008301526121978161215b565b9050919050565b60006060820190506121b36000830186611f0a565b6121c06020830185611f0a565b6121cd6040830184611e10565b949350505050565b7f4e487b7100000000000000000000000000000000000000000000000000000000600052601160045260246000fd5b600061220f82611d13565b915061221a83611d13565b9250828201905080821115612232576122316121d5565b5b92915050565b600061224382611d13565b915061224e83611d13565b925082820261225c81611d13565b91508282048414831517612273576122726121d5565b5b5092915050565b600061228582611d13565b915061229083611d13565b92508282039050818111156122a8576122a76121d5565b5b92915050565b7f4e6f206465706f73697420666f756e6400000000000000000000000000000000600082015250565b60006122e46010836120b5565b91506122ef826122ae565b602082019050919050565b60006020820190508181036000830152612313816122d7565b9050919050565b7f546f6b656e7320617265207374696c6c206c6f636b6564000000000000000000600082015250565b60006123506017836120b5565b915061235b8261231a565b602082019050919050565b6000602082019050818103600083015261237f81612343565b9050919050565b600060408201905061239b6000830185611f0a565b6123a86020830184611e10565b9392505050565b60008115159050919050565b6123c4816123af565b81146123cf57600080fd5b50565b6000815190506123e1816123bb565b92915050565b6000602082840312156123fd576123fc611d0e565b5b600061240b848285016123d2565b91505092915050565b7f5472616e7366657220616d6f756e74206661696c656400000000000000000000600082015250565b600061244a6016836120b5565b915061245582612414565b602082019050919050565b600060208201905081810360008301526124798161243d565b9050919050565b7f5472616e7366657220726577617264206661696c656400000000000000000000600082015250565b60006124b66016836120b5565b91506124c182612480565b602082019050919050565b600060208201905081810360008301526124e5816124a9565b9050919050565b7f416d6f756e74206d7573742062652067726561746572207468616e2030000000600082015250565b6000612522601d836120b5565b915061252d826124ec565b602082019050919050565b6000602082019050818103600083015261255181612515565b9050919050565b7f5472616e73666572206661696c65640000000000000000000000000000000000600082015250565b600061258e600f836120b5565b915061259982612558565b602082019050919050565b600060208201905081810360008301526125bd81612581565b9050919050565b6000815190506125d381611d1d565b92915050565b6000602082840312156125ef576125ee611d0e565b5b60006125fd848285016125c4565b91505092915050565b7f4e487b7100000000000000000000000000000000000000000000000000000000600052601260045260246000fd5b600061264082611d13565b915061264b83611d13565b92508261265b5761265a612606565b5b828204905092915050565b600061267182611d13565b91507fffffffffffffffffffffffffffffffffffffffffffffffffffffffffffffffff82036126a3576126a26121d5565b5b600182019050919050565b7f4e6f207265776172647320617661696c61626c65000000000000000000000000600082015250565b60006126e46014836120b5565b91506126ef826126ae565b602082019050919050565b60006020820190508181036000830152612713816126d7565b9050919050565b7f4e487b7100000000000000000000000000000000000000000000000000000000600052603260045260246000fd5b7f4e487b7100000000000000000000000000000000000000000000000000000000600052603160045260246000fdfea26469706673582212208bb9986508dc645f25af1ae325748ba1047be03edaefad6b09bc99f1e2c0675764736f6c63430008140033",
  "linkReferences": {},
  "deployedLinkReferences": {}
}