{
  "_format": "hh-sol-artifact-1",
  "contractName": "Staking",
  "sourceName": "contracts/Staking.sol",
  "abi": [
    {
      "inputs": [
        {
          "internalType": "address",
          "name": "_tokenA",
          "type": "address"
        },
        {
          "internalType": "address",
          "name": "_tokenB",
          "type": "address"
        }
      ],
      "stateMutability": "nonpayable",
      "type": "constructor"
    },
    {
      "inputs": [],
      "name": "MathOverflowedMulDiv",
      "type": "error"
    },
    {
      "inputs": [
        {
          "internalType": "address",
          "name": "owner",
          "type": "address"
        }
      ],
      "name": "OwnableInvalidOwner",
      "type": "error"
    },
    {
      "inputs": [
        {
          "internalType": "address",
          "name": "account",
          "type": "address"
        }
      ],
      "name": "OwnableUnauthorizedAccount",
      "type": "error"
    },
    {
      "anonymous": false,
      "inputs": [
        {
          "indexed": true,
          "internalType": "address",
          "name": "user",
          "type": "address"
        },
        {
          "indexed": false,
          "internalType": "uint256",
          "name": "amount",
          "type": "uint256"
        }
      ],
      "name": "Deposited",
      "type": "event"
    },
    {
      "anonymous": false,
      "inputs": [
        {
          "indexed": true,
          "internalType": "address",
          "name": "user",
          "type": "address"
        },
        {
          "indexed": false,
          "internalType": "uint256",
          "name": "tokenId",
          "type": "uint256"
        }
      ],
      "name": "NFTDeposited",
      "type": "event"
    },
    {
      "anonymous": false,
      "inputs": [
        {
          "indexed": true,
          "internalType": "address",
          "name": "user",
          "type": "address"
        },
        {
          "indexed": false,
          "internalType": "uint256",
          "name": "tokenId",
          "type": "uint256"
        }
      ],
      "name": "NFTMinted",
      "type": "event"
    },
    {
      "anonymous": false,
      "inputs": [
        {
          "indexed": true,
          "internalType": "address",
          "name": "user",
          "type": "address"
        },
        {
          "indexed": false,
          "internalType": "uint256",
          "name": "tokenId",
          "type": "uint256"
        }
      ],
      "name": "NFTWithdrawn",
      "type": "event"
    },
    {
      "anonymous": false,
      "inputs": [
        {
          "indexed": true,
          "internalType": "address",
          "name": "previousOwner",
          "type": "address"
        },
        {
          "indexed": true,
          "internalType": "address",
          "name": "newOwner",
          "type": "address"
        }
      ],
      "name": "OwnershipTransferred",
      "type": "event"
    },
    {
      "anonymous": false,
      "inputs": [
        {
          "indexed": true,
          "internalType": "address",
          "name": "user",
          "type": "address"
        },
        {
          "indexed": false,
          "internalType": "uint256",
          "name": "reward",
          "type": "uint256"
        }
      ],
      "name": "RewardClaimed",
      "type": "event"
    },
    {
      "anonymous": false,
      "inputs": [
        {
          "indexed": true,
          "internalType": "address",
          "name": "user",
          "type": "address"
        },
        {
          "indexed": false,
          "internalType": "uint256",
          "name": "amount",
          "type": "uint256"
        }
      ],
      "name": "Withdrawn",
      "type": "event"
    },
    {
      "inputs": [],
      "name": "BASE_APR",
      "outputs": [
        {
          "internalType": "uint256",
          "name": "",
          "type": "uint256"
        }
      ],
      "stateMutability": "view",
      "type": "function"
    },
    {
      "inputs": [],
      "name": "LOCK_TIME",
      "outputs": [
        {
          "internalType": "uint256",
          "name": "",
          "type": "uint256"
        }
      ],
      "stateMutability": "view",
      "type": "function"
    },
    {
      "inputs": [],
      "name": "MINT_THRESHOLD",
      "outputs": [
        {
          "internalType": "uint256",
          "name": "",
          "type": "uint256"
        }
      ],
      "stateMutability": "view",
      "type": "function"
    },
    {
      "inputs": [
        {
          "internalType": "address",
          "name": "user",
          "type": "address"
        }
      ],
      "name": "calculateReward",
      "outputs": [
        {
          "internalType": "uint256",
          "name": "",
          "type": "uint256"
        }
      ],
      "stateMutability": "view",
      "type": "function"
    },
    {
      "inputs": [],
      "name": "claimReward",
      "outputs": [],
      "stateMutability": "nonpayable",
      "type": "function"
    },
    {
      "inputs": [
        {
          "internalType": "uint256",
          "name": "_amount",
          "type": "uint256"
        }
      ],
      "name": "deposit",
      "outputs": [],
      "stateMutability": "nonpayable",
      "type": "function"
    },
    {
      "inputs": [
        {
          "internalType": "uint256",
          "name": "tokenId",
          "type": "uint256"
        }
      ],
      "name": "depositNFT",
      "outputs": [],
      "stateMutability": "nonpayable",
      "type": "function"
    },
    {
      "inputs": [
        {
          "internalType": "address",
          "name": "",
          "type": "address"
        },
        {
          "internalType": "uint256",
          "name": "",
          "type": "uint256"
        }
      ],
      "name": "depositedNFTs",
      "outputs": [
        {
          "internalType": "uint256",
          "name": "",
          "type": "uint256"
        }
      ],
      "stateMutability": "view",
      "type": "function"
    },
    {
      "inputs": [
        {
          "internalType": "address",
          "name": "",
          "type": "address"
        }
      ],
      "name": "deposits",
      "outputs": [
        {
          "internalType": "uint256",
          "name": "counter",
          "type": "uint256"
        },
        {
          "internalType": "uint256",
          "name": "amount",
          "type": "uint256"
        },
        {
          "internalType": "uint256",
          "name": "reward",
          "type": "uint256"
        },
        {
          "internalType": "uint256",
          "name": "timestamp",
          "type": "uint256"
        },
        {
          "internalType": "uint256",
          "name": "nftDepositedTime",
          "type": "uint256"
        },
        {
          "internalType": "uint256",
          "name": "bonusAPR",
          "type": "uint256"
        },
        {
          "internalType": "uint256",
          "name": "lockTimestamp",
          "type": "uint256"
        }
      ],
      "stateMutability": "view",
      "type": "function"
    },
    {
      "inputs": [
        {
          "internalType": "address",
          "name": "user",
          "type": "address"
        }
      ],
      "name": "getDepositInfo",
      "outputs": [
        {
          "internalType": "uint256",
          "name": "amount",
          "type": "uint256"
        },
        {
          "internalType": "uint256",
          "name": "timestamp",
          "type": "uint256"
        }
      ],
      "stateMutability": "view",
      "type": "function"
    },
    {
      "inputs": [
        {
          "internalType": "address",
          "name": "user",
          "type": "address"
        }
      ],
      "name": "getDepositedNFTs",
      "outputs": [
        {
          "internalType": "uint256[]",
          "name": "",
          "type": "uint256[]"
        }
      ],
      "stateMutability": "view",
      "type": "function"
    },
    {
      "inputs": [
        {
          "internalType": "uint256",
          "name": "newBaseAPR",
          "type": "uint256"
        }
      ],
      "name": "modifyBaseAPR",
      "outputs": [],
      "stateMutability": "nonpayable",
      "type": "function"
    },
    {
      "inputs": [],
      "name": "owner",
      "outputs": [
        {
          "internalType": "address",
          "name": "",
          "type": "address"
        }
      ],
      "stateMutability": "view",
      "type": "function"
    },
    {
      "inputs": [],
      "name": "renounceOwnership",
      "outputs": [],
      "stateMutability": "nonpayable",
      "type": "function"
    },
    {
      "inputs": [],
      "name": "tokenA",
      "outputs": [
        {
          "internalType": "contract TokenA",
          "name": "",
          "type": "address"
        }
      ],
      "stateMutability": "view",
      "type": "function"
    },
    {
      "inputs": [],
      "name": "tokenB",
      "outputs": [
        {
          "internalType": "contract TokenB",
          "name": "",
          "type": "address"
        }
      ],
      "stateMutability": "view",
      "type": "function"
    },
    {
      "inputs": [
        {
          "internalType": "address",
          "name": "",
          "type": "address"
        }
      ],
      "name": "totalDepositedAmount",
      "outputs": [
        {
          "internalType": "uint256",
          "name": "",
          "type": "uint256"
        }
      ],
      "stateMutability": "view",
      "type": "function"
    },
    {
      "inputs": [
        {
          "internalType": "address",
          "name": "newOwner",
          "type": "address"
        }
      ],
      "name": "transferOwnership",
      "outputs": [],
      "stateMutability": "nonpayable",
      "type": "function"
    },
    {
      "inputs": [],
      "name": "withdraw",
      "outputs": [],
      "stateMutability": "nonpayable",
      "type": "function"
    },
    {
      "inputs": [
        {
          "internalType": "uint256",
          "name": "tokenId",
          "type": "uint256"
        }
      ],
      "name": "withdrawNFT",
      "outputs": [],
      "stateMutability": "nonpayable",
      "type": "function"
    }
  ],
  "bytecode": "0x608060405260086003553480156200001657600080fd5b5060405162002ab138038062002ab183398181016040528101906200003c91906200027c565b33600073ffffffffffffffffffffffffffffffffffffffff168173ffffffffffffffffffffffffffffffffffffffff1603620000b25760006040517f1e4fbdf7000000000000000000000000000000000000000000000000000000008152600401620000a99190620002d4565b60405180910390fd5b620000c3816200014e60201b60201c565b5081600160006101000a81548173ffffffffffffffffffffffffffffffffffffffff021916908373ffffffffffffffffffffffffffffffffffffffff16021790555080600260006101000a81548173ffffffffffffffffffffffffffffffffffffffff021916908373ffffffffffffffffffffffffffffffffffffffff1602179055505050620002f1565b60008060009054906101000a900473ffffffffffffffffffffffffffffffffffffffff169050816000806101000a81548173ffffffffffffffffffffffffffffffffffffffff021916908373ffffffffffffffffffffffffffffffffffffffff1602179055508173ffffffffffffffffffffffffffffffffffffffff168173ffffffffffffffffffffffffffffffffffffffff167f8be0079c531659141344cd1fd0a4f28419497f9722a3daafe3b4186f6b6457e060405160405180910390a35050565b600080fd5b600073ffffffffffffffffffffffffffffffffffffffff82169050919050565b6000620002448262000217565b9050919050565b620002568162000237565b81146200026257600080fd5b50565b60008151905062000276816200024b565b92915050565b6000806040838503121562000296576200029562000212565b5b6000620002a68582860162000265565b9250506020620002b98582860162000265565b9150509250929050565b620002ce8162000237565b82525050565b6000602082019050620002eb6000830184620002c3565b92915050565b6127b080620003016000396000f3fe608060405234801561001057600080fd5b506004361061012c5760003560e01c80638da5cb5b116100ad578063e4fd18c911610071578063e4fd18c9146102fa578063e91a7ca614610318578063f2fde38b14610334578063f6e3912414610350578063fc7e286d146103805761012c565b80638da5cb5b14610256578063b36b26c514610274578063b6b55f25146102a4578063b88a802f146102c0578063d82e3962146102ca5761012c565b806349b1e3c1116100f457806349b1e3c1146101b15780635287ce12146101cd5780635f64b55b146101fe578063715018a61461021c5780637da830b4146102265761012c565b8063023245d7146101315780630fc63d101461014d578063134551281461016b5780633ccfd60b14610189578063413d9c3a14610193575b600080fd5b61014b60048036038101906101469190611d3d565b6103b6565b005b61015561069c565b6040516101629190611de9565b60405180910390f35b6101736106c2565b6040516101809190611e13565b60405180910390f35b6101916106d0565b005b61019b610a37565b6040516101a89190611e13565b60405180910390f35b6101cb60048036038101906101c69190611d3d565b610a3c565b005b6101e760048036038101906101e29190611e6c565b610a4e565b6040516101f5929190611e99565b60405180910390f35b610206610af9565b6040516102139190611ee3565b60405180910390f35b610224610b1f565b005b610240600480360381019061023b9190611e6c565b610b33565b60405161024d9190611e13565b60405180910390f35b61025e610b4b565b60405161026b9190611f0d565b60405180910390f35b61028e60048036038101906102899190611e6c565b610b74565b60405161029b9190611fe6565b60405180910390f35b6102be60048036038101906102b99190611d3d565b610c0b565b005b6102c86110e6565b005b6102e460048036038101906102df9190611e6c565b611371565b6040516102f19190611e13565b60405180910390f35b6103026115c3565b60405161030f9190611e13565b60405180910390f35b610332600480360381019061032d9190611d3d565b6115c9565b005b61034e60048036038101906103499190611e6c565b6117ba565b005b61036a60048036038101906103659190612008565b611840565b6040516103779190611e13565b60405180910390f35b61039a60048036038101906103959190611e6c565b611871565b6040516103ad9796959493929190612048565b60405180910390f35b6000600560003373ffffffffffffffffffffffffffffffffffffffff1673ffffffffffffffffffffffffffffffffffffffff16815260200190815260200160002090508060060154421015610440576040517f08c379a000000000000000000000000000000000000000000000000000000000815260040161043790612114565b60405180910390fd5b61044a33836118b3565b610489576040517f08c379a000000000000000000000000000000000000000000000000000000000815260040161048090612180565b60405180910390fd5b600260009054906101000a900473ffffffffffffffffffffffffffffffffffffffff1673ffffffffffffffffffffffffffffffffffffffff166323b872dd3033856040518463ffffffff1660e01b81526004016104e8939291906121a0565b600060405180830381600087803b15801561050257600080fd5b505af1158015610516573d6000803e3d6000fd5b505050506000600660003373ffffffffffffffffffffffffffffffffffffffff1673ffffffffffffffffffffffffffffffffffffffff1681526020019081526020016000208054806020026020016040519081016040528092919081815260200182805480156105a557602002820191906000526020600020905b815481526020019060010190808311610591575b505050505090506000826001015411156105e35760006105c433611371565b9050808360020160008282546105da9190612206565b92505081905550505b6000815183600501546105f6919061223a565b6003546106039190612206565b905060035481111561062c576002836005016000828254610624919061227c565b925050819055505b428360030181905550428360040181905550610648338561199e565b3373ffffffffffffffffffffffffffffffffffffffff167f2aa1b4c95f3b2da9c955947fca584743ea0d457708fadf209c093061e98c4ccb8560405161068e9190611e13565b60405180910390a250505050565b600160009054906101000a900473ffffffffffffffffffffffffffffffffffffffff1681565b69d3c21bcecceda100000081565b6000600560003373ffffffffffffffffffffffffffffffffffffffff1673ffffffffffffffffffffffffffffffffffffffff1681526020019081526020016000209050600081600101541161075a576040517f08c379a0000000000000000000000000000000000000000000000000000000008152600401610751906122fc565b60405180910390fd5b80600601544210156107a1576040517f08c379a000000000000000000000000000000000000000000000000000000000815260040161079890612368565b60405180910390fd5b600081600201546107b133611371565b6107bb9190612206565b9050600160009054906101000a900473ffffffffffffffffffffffffffffffffffffffff1673ffffffffffffffffffffffffffffffffffffffff1663a9059cbb3384600101546040518363ffffffff1660e01b815260040161081e929190612388565b6020604051808303816000875af115801561083d573d6000803e3d6000fd5b505050506040513d601f19601f8201168201806040525081019061086191906123e9565b6108a0576040517f08c379a000000000000000000000000000000000000000000000000000000000815260040161089790612462565b60405180910390fd5b600160009054906101000a900473ffffffffffffffffffffffffffffffffffffffff1673ffffffffffffffffffffffffffffffffffffffff166315490ebb33836040518363ffffffff1660e01b81526004016108fd929190612388565b6020604051808303816000875af115801561091c573d6000803e3d6000fd5b505050506040513d601f19601f8201168201806040525081019061094091906123e9565b61097f576040517f08c379a0000000000000000000000000000000000000000000000000000000008152600401610976906124ce565b60405180910390fd5b60008260010181905550600082600201819055503373ffffffffffffffffffffffffffffffffffffffff167f7084f5476618d8e60b11ef0d7d3f06914655adb8793e28ff7f018d4c76d505d583600101546040516109dd9190611e13565b60405180910390a23373ffffffffffffffffffffffffffffffffffffffff167f106f923f993c2149d49b4255ff723acafa1f2d94393f561d3eda32ae348f724182604051610a2b9190611e13565b60405180910390a25050565b601e81565b610a44611aa8565b8060038190555050565b6000806000600560008573ffffffffffffffffffffffffffffffffffffffff1673ffffffffffffffffffffffffffffffffffffffff1681526020019081526020016000206040518060e00160405290816000820154815260200160018201548152602001600282015481526020016003820154815260200160048201548152602001600582015481526020016006820154815250509050806020015181606001519250925050915091565b600260009054906101000a900473ffffffffffffffffffffffffffffffffffffffff1681565b610b27611aa8565b610b316000611b2f565b565b60046020528060005260406000206000915090505481565b60008060009054906101000a900473ffffffffffffffffffffffffffffffffffffffff16905090565b6060600660008373ffffffffffffffffffffffffffffffffffffffff1673ffffffffffffffffffffffffffffffffffffffff168152602001908152602001600020805480602002602001604051908101604052809291908181526020018280548015610bff57602002820191906000526020600020905b815481526020019060010190808311610beb575b50505050509050919050565b60008111610c4e576040517f08c379a0000000000000000000000000000000000000000000000000000000008152600401610c459061253a565b60405180910390fd5b600160009054906101000a900473ffffffffffffffffffffffffffffffffffffffff1673ffffffffffffffffffffffffffffffffffffffff166323b872dd3330846040518463ffffffff1660e01b8152600401610cad939291906121a0565b6020604051808303816000875af1158015610ccc573d6000803e3d6000fd5b505050506040513d601f19601f82011682018060405250810190610cf091906123e9565b610d2f576040517f08c379a0000000000000000000000000000000000000000000000000000000008152600401610d26906125a6565b60405180910390fd5b6000600560003373ffffffffffffffffffffffffffffffffffffffff1673ffffffffffffffffffffffffffffffffffffffff16815260200190815260200160002090506000816000015403610d8c57428160030181905550610db6565b6000610d9733611371565b905080826002016000828254610dad9190612206565b92505081905550505b600081600401541115610dcd574281600401819055505b81816001016000828254610de19190612206565b9250508190555081600460003373ffffffffffffffffffffffffffffffffffffffff1673ffffffffffffffffffffffffffffffffffffffff1681526020019081526020016000206000828254610e379190612206565b925050819055506001816000016000828254610e539190612206565b92505081905550428160030181905550601e42610e709190612206565b81600601819055506000600260009054906101000a900473ffffffffffffffffffffffffffffffffffffffff1673ffffffffffffffffffffffffffffffffffffffff1663f41d3f69336040518263ffffffff1660e01b8152600401610ed59190611f0d565b602060405180830381865afa158015610ef2573d6000803e3d6000fd5b505050506040513d601f19601f82011682018060405250810190610f1691906125db565b90506000600460003373ffffffffffffffffffffffffffffffffffffffff1673ffffffffffffffffffffffffffffffffffffffff16815260200190815260200160002054905060008269d3c21bcecceda100000083610f759190612637565b610f7f919061227c565b905060005b81811015611090576000600260009054906101000a900473ffffffffffffffffffffffffffffffffffffffff1673ffffffffffffffffffffffffffffffffffffffff166354ba0f27336040518263ffffffff1660e01b8152600401610fe99190611f0d565b6020604051808303816000875af1158015611008573d6000803e3d6000fd5b505050506040513d601f19601f8201168201806040525081019061102c91906125db565b90503373ffffffffffffffffffffffffffffffffffffffff167f4cc0a9c4a99ddc700de1af2c9f916a7cbfdb71f14801ccff94061ad1ef8a8040826040516110749190611e13565b60405180910390a250808061108890612668565b915050610f84565b503373ffffffffffffffffffffffffffffffffffffffff167f2da466a7b24304f47e87fa2e1e5a81b9831ce54fec19055ce277ca2f39ba42c4866040516110d79190611e13565b60405180910390a25050505050565b6000600560003373ffffffffffffffffffffffffffffffffffffffff1673ffffffffffffffffffffffffffffffffffffffff16815260200190815260200160002090506000816001015411611170576040517f08c379a0000000000000000000000000000000000000000000000000000000008152600401611167906122fc565b60405180910390fd5b80600601544210156111b7576040517f08c379a00000000000000000000000000000000000000000000000000000000081526004016111ae90612368565b60405180910390fd5b600081600201546111c733611371565b6111d19190612206565b905060008111611216576040517f08c379a000000000000000000000000000000000000000000000000000000000815260040161120d906126fc565b60405180910390fd5b600160009054906101000a900473ffffffffffffffffffffffffffffffffffffffff1673ffffffffffffffffffffffffffffffffffffffff166315490ebb33836040518363ffffffff1660e01b8152600401611273929190612388565b6020604051808303816000875af1158015611292573d6000803e3d6000fd5b505050506040513d601f19601f820116820180604052508101906112b691906123e9565b6112f5576040517f08c379a00000000000000000000000000000000000000000000000000000000081526004016112ec906124ce565b60405180910390fd5b6000826002018190555042826003018190555060008260040154111561131f574282600401819055505b3373ffffffffffffffffffffffffffffffffffffffff167f106f923f993c2149d49b4255ff723acafa1f2d94393f561d3eda32ae348f7241826040516113659190611e13565b60405180910390a25050565b600080600560008473ffffffffffffffffffffffffffffffffffffffff1673ffffffffffffffffffffffffffffffffffffffff1681526020019081526020016000206040518060e001604052908160008201548152602001600182015481526020016002820154815260200160038201548152602001600482015481526020016005820154815260200160068201548152505090506000600660008573ffffffffffffffffffffffffffffffffffffffff1673ffffffffffffffffffffffffffffffffffffffff16815260200190815260200160002080548060200260200160405190810160405280929190818152602001828054801561149157602002820191906000526020600020905b81548152602001906001019080831161147d575b5050505050905060008260200151036114af576000925050506115be565b60008260600151426114c1919061227c565b9050600082518460a001516114d6919061223a565b6003546114e39190612206565b905060008060008660800151905060008111156115735761153587606001518261150d919061227c565b600354896020015161151f919061223a565b611529919061223a565b600163bbf81e00611bf3565b925061156c8142611546919061227c565b858960200151611556919061223a565b611560919061223a565b600163bbf81e00611bf3565b91506115a2565b61159f856003548960200151611589919061223a565b611593919061223a565b600163bbf81e00611bf3565b92505b600082846115b09190612206565b905080985050505050505050505b919050565b60035481565b600260009054906101000a900473ffffffffffffffffffffffffffffffffffffffff1673ffffffffffffffffffffffffffffffffffffffff166323b872dd3330846040518463ffffffff1660e01b8152600401611628939291906121a0565b600060405180830381600087803b15801561164257600080fd5b505af1158015611656573d6000803e3d6000fd5b505050506000600560003373ffffffffffffffffffffffffffffffffffffffff1673ffffffffffffffffffffffffffffffffffffffff16815260200190815260200160002090506000816001015411156116d45760006116b533611371565b9050808260020160008282546116cb9190612206565b92505081905550505b60028160050160008282546116e99190612206565b92505081905550428160040181905550600660003373ffffffffffffffffffffffffffffffffffffffff1673ffffffffffffffffffffffffffffffffffffffff1681526020019081526020016000208290806001815401808255809150506001900390600052602060002001600090919091909150554281600301819055503373ffffffffffffffffffffffffffffffffffffffff167f1c4b8380f61aea3d5d98cbadaf2e6b2e4f3d8ca8c0fce1290b26ac267158745f836040516117ae9190611e13565b60405180910390a25050565b6117c2611aa8565b600073ffffffffffffffffffffffffffffffffffffffff168173ffffffffffffffffffffffffffffffffffffffff16036118345760006040517f1e4fbdf700000000000000000000000000000000000000000000000000000000815260040161182b9190611f0d565b60405180910390fd5b61183d81611b2f565b50565b6006602052816000526040600020818154811061185c57600080fd5b90600052602060002001600091509150505481565b60056020528060005260406000206000915090508060000154908060010154908060020154908060030154908060040154908060050154908060060154905087565b600080600660008573ffffffffffffffffffffffffffffffffffffffff1673ffffffffffffffffffffffffffffffffffffffff16815260200190815260200160002080548060200260200160405190810160405280929190818152602001828054801561193f57602002820191906000526020600020905b81548152602001906001019080831161192b575b5050505050905060005b815181101561199157838282815181106119665761196561271c565b5b60200260200101510361197e57600192505050611998565b808061198990612668565b915050611949565b5060009150505b92915050565b6000600660008473ffffffffffffffffffffffffffffffffffffffff1673ffffffffffffffffffffffffffffffffffffffff168152602001908152602001600020905060005b8180549050811015611aa25782828281548110611a0457611a0361271c565b5b906000526020600020015403611a8f578160018380549050611a26919061227c565b81548110611a3757611a3661271c565b5b9060005260206000200154828281548110611a5557611a5461271c565b5b906000526020600020018190555081805480611a7457611a7361274b565b5b60019003818190600052602060002001600090559055611aa2565b8080611a9a90612668565b9150506119e4565b50505050565b611ab0611cfa565b73ffffffffffffffffffffffffffffffffffffffff16611ace610b4b565b73ffffffffffffffffffffffffffffffffffffffff1614611b2d57611af1611cfa565b6040517f118cdaa7000000000000000000000000000000000000000000000000000000008152600401611b249190611f0d565b60405180910390fd5b565b60008060009054906101000a900473ffffffffffffffffffffffffffffffffffffffff169050816000806101000a81548173ffffffffffffffffffffffffffffffffffffffff021916908373ffffffffffffffffffffffffffffffffffffffff1602179055508173ffffffffffffffffffffffffffffffffffffffff168173ffffffffffffffffffffffffffffffffffffffff167f8be0079c531659141344cd1fd0a4f28419497f9722a3daafe3b4186f6b6457e060405160405180910390a35050565b6000808385029050600080198587098281108382030391505060008103611c2e57838281611c2457611c23612608565b5b0492505050611cf3565b808411611c67576040517f227bc15300000000000000000000000000000000000000000000000000000000815260040160405180910390fd5b600084868809905082811182039150808303925060008560000386169050808604955080840493506001818260000304019050808302841793506000600287600302189050808702600203810290508087026002038102905080870260020381029050808702600203810290508087026002038102905080870260020381029050808502955050505050505b9392505050565b600033905090565b600080fd5b6000819050919050565b611d1a81611d07565b8114611d2557600080fd5b50565b600081359050611d3781611d11565b92915050565b600060208284031215611d5357611d52611d02565b5b6000611d6184828501611d28565b91505092915050565b600073ffffffffffffffffffffffffffffffffffffffff82169050919050565b6000819050919050565b6000611daf611daa611da584611d6a565b611d8a565b611d6a565b9050919050565b6000611dc182611d94565b9050919050565b6000611dd382611db6565b9050919050565b611de381611dc8565b82525050565b6000602082019050611dfe6000830184611dda565b92915050565b611e0d81611d07565b82525050565b6000602082019050611e286000830184611e04565b92915050565b6000611e3982611d6a565b9050919050565b611e4981611e2e565b8114611e5457600080fd5b50565b600081359050611e6681611e40565b92915050565b600060208284031215611e8257611e81611d02565b5b6000611e9084828501611e57565b91505092915050565b6000604082019050611eae6000830185611e04565b611ebb6020830184611e04565b9392505050565b6000611ecd82611db6565b9050919050565b611edd81611ec2565b82525050565b6000602082019050611ef86000830184611ed4565b92915050565b611f0781611e2e565b82525050565b6000602082019050611f226000830184611efe565b92915050565b600081519050919050565b600082825260208201905092915050565b6000819050602082019050919050565b611f5d81611d07565b82525050565b6000611f6f8383611f54565b60208301905092915050565b6000602082019050919050565b6000611f9382611f28565b611f9d8185611f33565b9350611fa883611f44565b8060005b83811015611fd9578151611fc08882611f63565b9750611fcb83611f7b565b925050600181019050611fac565b5085935050505092915050565b600060208201905081810360008301526120008184611f88565b905092915050565b6000806040838503121561201f5761201e611d02565b5b600061202d85828601611e57565b925050602061203e85828601611d28565b9150509250929050565b600060e08201905061205d600083018a611e04565b61206a6020830189611e04565b6120776040830188611e04565b6120846060830187611e04565b6120916080830186611e04565b61209e60a0830185611e04565b6120ab60c0830184611e04565b98975050505050505050565b600082825260208201905092915050565b7f546f6b656e7320617265207374696c6c206c6f636b6564210000000000000000600082015250565b60006120fe6018836120b7565b9150612109826120c8565b602082019050919050565b6000602082019050818103600083015261212d816120f1565b9050919050565b7f4e4654206e6f74206465706f7369746564000000000000000000000000000000600082015250565b600061216a6011836120b7565b915061217582612134565b602082019050919050565b600060208201905081810360008301526121998161215d565b9050919050565b60006060820190506121b56000830186611efe565b6121c26020830185611efe565b6121cf6040830184611e04565b949350505050565b7f4e487b7100000000000000000000000000000000000000000000000000000000600052601160045260246000fd5b600061221182611d07565b915061221c83611d07565b9250828201905080821115612234576122336121d7565b5b92915050565b600061224582611d07565b915061225083611d07565b925082820261225e81611d07565b91508282048414831517612275576122746121d7565b5b5092915050565b600061228782611d07565b915061229283611d07565b92508282039050818111156122aa576122a96121d7565b5b92915050565b7f4e6f206465706f73697420666f756e6400000000000000000000000000000000600082015250565b60006122e66010836120b7565b91506122f1826122b0565b602082019050919050565b60006020820190508181036000830152612315816122d9565b9050919050565b7f546f6b656e7320617265207374696c6c206c6f636b6564000000000000000000600082015250565b60006123526017836120b7565b915061235d8261231c565b602082019050919050565b6000602082019050818103600083015261238181612345565b9050919050565b600060408201905061239d6000830185611efe565b6123aa6020830184611e04565b9392505050565b60008115159050919050565b6123c6816123b1565b81146123d157600080fd5b50565b6000815190506123e3816123bd565b92915050565b6000602082840312156123ff576123fe611d02565b5b600061240d848285016123d4565b91505092915050565b7f5472616e7366657220616d6f756e74206661696c656400000000000000000000600082015250565b600061244c6016836120b7565b915061245782612416565b602082019050919050565b6000602082019050818103600083015261247b8161243f565b9050919050565b7f5472616e7366657220726577617264206661696c656400000000000000000000600082015250565b60006124b86016836120b7565b91506124c382612482565b602082019050919050565b600060208201905081810360008301526124e7816124ab565b9050919050565b7f416d6f756e74206d7573742062652067726561746572207468616e2030000000600082015250565b6000612524601d836120b7565b915061252f826124ee565b602082019050919050565b6000602082019050818103600083015261255381612517565b9050919050565b7f5472616e73666572206661696c65640000000000000000000000000000000000600082015250565b6000612590600f836120b7565b915061259b8261255a565b602082019050919050565b600060208201905081810360008301526125bf81612583565b9050919050565b6000815190506125d581611d11565b92915050565b6000602082840312156125f1576125f0611d02565b5b60006125ff848285016125c6565b91505092915050565b7f4e487b7100000000000000000000000000000000000000000000000000000000600052601260045260246000fd5b600061264282611d07565b915061264d83611d07565b92508261265d5761265c612608565b5b828204905092915050565b600061267382611d07565b91507fffffffffffffffffffffffffffffffffffffffffffffffffffffffffffffffff82036126a5576126a46121d7565b5b600182019050919050565b7f4e6f207265776172647320617661696c61626c65000000000000000000000000600082015250565b60006126e66014836120b7565b91506126f1826126b0565b602082019050919050565b60006020820190508181036000830152612715816126d9565b9050919050565b7f4e487b7100000000000000000000000000000000000000000000000000000000600052603260045260246000fd5b7f4e487b7100000000000000000000000000000000000000000000000000000000600052603160045260246000fdfea2646970667358221220e17419dcb24ad77676089700d24d3b86ce30cb9d757555f63a5c817a93d5a47564736f6c63430008140033",
  "linkReferences": {},
  "deployedLinkReferences": {}
}