{
  "_format": "hh-sol-artifact-1",
  "contractName": "TokenA",
  "sourceName": "contracts/TokenA.sol",
  "abi": [
    {
      "inputs": [],
      "stateMutability": "nonpayable",
      "type": "constructor"
    },
    {
      "inputs": [
        {
          "internalType": "address",
          "name": "spender",
          "type": "address"
        },
        {
          "internalType": "uint256",
          "name": "allowance",
          "type": "uint256"
        },
        {
          "internalType": "uint256",
          "name": "needed",
          "type": "uint256"
        }
      ],
      "name": "ERC20InsufficientAllowance",
      "type": "error"
    },
    {
      "inputs": [
        {
          "internalType": "address",
          "name": "sender",
          "type": "address"
        },
        {
          "internalType": "uint256",
          "name": "balance",
          "type": "uint256"
        },
        {
          "internalType": "uint256",
          "name": "needed",
          "type": "uint256"
        }
      ],
      "name": "ERC20InsufficientBalance",
      "type": "error"
    },
    {
      "inputs": [
        {
          "internalType": "address",
          "name": "approver",
          "type": "address"
        }
      ],
      "name": "ERC20InvalidApprover",
      "type": "error"
    },
    {
      "inputs": [
        {
          "internalType": "address",
          "name": "receiver",
          "type": "address"
        }
      ],
      "name": "ERC20InvalidReceiver",
      "type": "error"
    },
    {
      "inputs": [
        {
          "internalType": "address",
          "name": "sender",
          "type": "address"
        }
      ],
      "name": "ERC20InvalidSender",
      "type": "error"
    },
    {
      "inputs": [
        {
          "internalType": "address",
          "name": "spender",
          "type": "address"
        }
      ],
      "name": "ERC20InvalidSpender",
      "type": "error"
    },
    {
      "anonymous": false,
      "inputs": [
        {
          "indexed": true,
          "internalType": "address",
          "name": "owner",
          "type": "address"
        },
        {
          "indexed": true,
          "internalType": "address",
          "name": "spender",
          "type": "address"
        },
        {
          "indexed": false,
          "internalType": "uint256",
          "name": "value",
          "type": "uint256"
        }
      ],
      "name": "Approval",
      "type": "event"
    },
    {
      "anonymous": false,
      "inputs": [
        {
          "indexed": true,
          "internalType": "address",
          "name": "from",
          "type": "address"
        },
        {
          "indexed": true,
          "internalType": "address",
          "name": "to",
          "type": "address"
        },
        {
          "indexed": false,
          "internalType": "uint256",
          "name": "value",
          "type": "uint256"
        }
      ],
      "name": "Transfer",
      "type": "event"
    },
    {
      "inputs": [],
      "name": "MAX_FAUCET_AMOUNT",
      "outputs": [
        {
          "internalType": "uint256",
          "name": "",
          "type": "uint256"
        }
      ],
      "stateMutability": "view",
      "type": "function"
    },
    {
      "inputs": [],
      "name": "MAX_REWARD_AMOUNT",
      "outputs": [
        {
          "internalType": "uint256",
          "name": "",
          "type": "uint256"
        }
      ],
      "stateMutability": "view",
      "type": "function"
    },
    {
      "inputs": [],
      "name": "TOTAL_SUPPLY",
      "outputs": [
        {
          "internalType": "uint256",
          "name": "",
          "type": "uint256"
        }
      ],
      "stateMutability": "view",
      "type": "function"
    },
    {
      "inputs": [
        {
          "internalType": "address",
          "name": "owner",
          "type": "address"
        },
        {
          "internalType": "address",
          "name": "spender",
          "type": "address"
        }
      ],
      "name": "allowance",
      "outputs": [
        {
          "internalType": "uint256",
          "name": "",
          "type": "uint256"
        }
      ],
      "stateMutability": "view",
      "type": "function"
    },
    {
      "inputs": [
        {
          "internalType": "address",
          "name": "spender",
          "type": "address"
        },
        {
          "internalType": "uint256",
          "name": "value",
          "type": "uint256"
        }
      ],
      "name": "approve",
      "outputs": [
        {
          "internalType": "bool",
          "name": "",
          "type": "bool"
        }
      ],
      "stateMutability": "nonpayable",
      "type": "function"
    },
    {
      "inputs": [
        {
          "internalType": "address",
          "name": "account",
          "type": "address"
        }
      ],
      "name": "balanceOf",
      "outputs": [
        {
          "internalType": "uint256",
          "name": "",
          "type": "uint256"
        }
      ],
      "stateMutability": "view",
      "type": "function"
    },
    {
      "inputs": [],
      "name": "decimals",
      "outputs": [
        {
          "internalType": "uint8",
          "name": "",
          "type": "uint8"
        }
      ],
      "stateMutability": "view",
      "type": "function"
    },
    {
      "inputs": [],
      "name": "name",
      "outputs": [
        {
          "internalType": "string",
          "name": "",
          "type": "string"
        }
      ],
      "stateMutability": "view",
      "type": "function"
    },
    {
      "inputs": [],
      "name": "stakingContract",
      "outputs": [
        {
          "internalType": "address",
          "name": "",
          "type": "address"
        }
      ],
      "stateMutability": "view",
      "type": "function"
    },
    {
      "inputs": [],
      "name": "symbol",
      "outputs": [
        {
          "internalType": "string",
          "name": "",
          "type": "string"
        }
      ],
      "stateMutability": "view",
      "type": "function"
    },
    {
      "inputs": [],
      "name": "totalSupply",
      "outputs": [
        {
          "internalType": "uint256",
          "name": "",
          "type": "uint256"
        }
      ],
      "stateMutability": "view",
      "type": "function"
    },
    {
      "inputs": [
        {
          "internalType": "address",
          "name": "to",
          "type": "address"
        },
        {
          "internalType": "uint256",
          "name": "value",
          "type": "uint256"
        }
      ],
      "name": "transfer",
      "outputs": [
        {
          "internalType": "bool",
          "name": "",
          "type": "bool"
        }
      ],
      "stateMutability": "nonpayable",
      "type": "function"
    },
    {
      "inputs": [
        {
          "internalType": "address",
          "name": "from",
          "type": "address"
        },
        {
          "internalType": "address",
          "name": "to",
          "type": "address"
        },
        {
          "internalType": "uint256",
          "name": "value",
          "type": "uint256"
        }
      ],
      "name": "transferFrom",
      "outputs": [
        {
          "internalType": "bool",
          "name": "",
          "type": "bool"
        }
      ],
      "stateMutability": "nonpayable",
      "type": "function"
    },
    {
      "inputs": [
        {
          "internalType": "address",
          "name": "to",
          "type": "address"
        },
        {
          "internalType": "uint256",
          "name": "amount",
          "type": "uint256"
        }
      ],
      "name": "transferReward",
      "outputs": [
        {
          "internalType": "bool",
          "name": "",
          "type": "bool"
        }
      ],
      "stateMutability": "nonpayable",
      "type": "function"
    },
    {
      "inputs": [
        {
          "internalType": "address",
          "name": "recipient",
          "type": "address"
        },
        {
          "internalType": "uint256",
          "name": "amount",
          "type": "uint256"
        }
      ],
      "name": "transferToUser",
      "outputs": [
        {
          "internalType": "bool",
          "name": "",
          "type": "bool"
        }
      ],
      "stateMutability": "nonpayable",
      "type": "function"
    }
  ],
  "bytecode": "0x60806040523480156200001157600080fd5b506040518060400160405280600681526020017f546f6b656e4100000000000000000000000000000000000000000000000000008152506040518060400160405280600381526020017f544b41000000000000000000000000000000000000000000000000000000000081525081600390816200008f9190620005ff565b508060049081620000a19190620005ff565b505050620000c2306b033b2e3c9fd0803ce8000000620000c860201b60201c565b6200081d565b600073ffffffffffffffffffffffffffffffffffffffff168273ffffffffffffffffffffffffffffffffffffffff16036200013d5760006040517fec442f050000000000000000000000000000000000000000000000000000000081526004016200013491906200072b565b60405180910390fd5b62000151600083836200015560201b60201c565b5050565b600073ffffffffffffffffffffffffffffffffffffffff168373ffffffffffffffffffffffffffffffffffffffff1603620001ab5780600260008282546200019e919062000777565b9250508190555062000281565b60008060008573ffffffffffffffffffffffffffffffffffffffff1673ffffffffffffffffffffffffffffffffffffffff168152602001908152602001600020549050818110156200023a578381836040517fe450d38c0000000000000000000000000000000000000000000000000000000081526004016200023193929190620007c3565b60405180910390fd5b8181036000808673ffffffffffffffffffffffffffffffffffffffff1673ffffffffffffffffffffffffffffffffffffffff16815260200190815260200160002081905550505b600073ffffffffffffffffffffffffffffffffffffffff168273ffffffffffffffffffffffffffffffffffffffff1603620002cc578060026000828254039250508190555062000319565b806000808473ffffffffffffffffffffffffffffffffffffffff1673ffffffffffffffffffffffffffffffffffffffff168152602001908152602001600020600082825401925050819055505b8173ffffffffffffffffffffffffffffffffffffffff168373ffffffffffffffffffffffffffffffffffffffff167fddf252ad1be2c89b69c2b068fc378daa952ba7f163c4a11628f55a4df523b3ef8360405162000378919062000800565b60405180910390a3505050565b600081519050919050565b7f4e487b7100000000000000000000000000000000000000000000000000000000600052604160045260246000fd5b7f4e487b7100000000000000000000000000000000000000000000000000000000600052602260045260246000fd5b600060028204905060018216806200040757607f821691505b6020821081036200041d576200041c620003bf565b5b50919050565b60008190508160005260206000209050919050565b60006020601f8301049050919050565b600082821b905092915050565b600060088302620004877fffffffffffffffffffffffffffffffffffffffffffffffffffffffffffffffff8262000448565b62000493868362000448565b95508019841693508086168417925050509392505050565b6000819050919050565b6000819050919050565b6000620004e0620004da620004d484620004ab565b620004b5565b620004ab565b9050919050565b6000819050919050565b620004fc83620004bf565b620005146200050b82620004e7565b84845462000455565b825550505050565b600090565b6200052b6200051c565b62000538818484620004f1565b505050565b5b8181101562000560576200055460008262000521565b6001810190506200053e565b5050565b601f821115620005af57620005798162000423565b620005848462000438565b8101602085101562000594578190505b620005ac620005a38562000438565b8301826200053d565b50505b505050565b600082821c905092915050565b6000620005d460001984600802620005b4565b1980831691505092915050565b6000620005ef8383620005c1565b9150826002028217905092915050565b6200060a8262000385565b67ffffffffffffffff81111562000626576200062562000390565b5b620006328254620003ee565b6200063f82828562000564565b600060209050601f83116001811462000677576000841562000662578287015190505b6200066e8582620005e1565b865550620006de565b601f198416620006878662000423565b60005b82811015620006b1578489015182556001820191506020850194506020810190506200068a565b86831015620006d15784890151620006cd601f891682620005c1565b8355505b6001600288020188555050505b505050505050565b600073ffffffffffffffffffffffffffffffffffffffff82169050919050565b60006200071382620006e6565b9050919050565b620007258162000706565b82525050565b60006020820190506200074260008301846200071a565b92915050565b7f4e487b7100000000000000000000000000000000000000000000000000000000600052601160045260246000fd5b60006200078482620004ab565b91506200079183620004ab565b9250828201905080821115620007ac57620007ab62000748565b5b92915050565b620007bd81620004ab565b82525050565b6000606082019050620007da60008301866200071a565b620007e96020830185620007b2565b620007f86040830184620007b2565b949350505050565b6000602082019050620008176000830184620007b2565b92915050565b611417806200082d6000396000f3fe608060405234801561001057600080fd5b50600436106100f55760003560e01c80636376d2d811610097578063a04f6b4b11610066578063a04f6b4b1461029e578063a9059cbb146102bc578063dd62ed3e146102ec578063ee99205c1461031c576100f5565b80636376d2d81461021457806370a0823114610232578063902d55a51461026257806395d89b4114610280576100f5565b806318160ddd116100d357806318160ddd1461017857806323b872dd14610196578063313ce567146101c65780635f7807a4146101e4576100f5565b806306fdde03146100fa578063095ea7b31461011857806315490ebb14610148575b600080fd5b61010261033a565b60405161010f9190610e03565b60405180910390f35b610132600480360381019061012d9190610ebe565b6103cc565b60405161013f9190610f19565b60405180910390f35b610162600480360381019061015d9190610ebe565b6103ef565b60405161016f9190610f19565b60405180910390f35b61018061049e565b60405161018d9190610f43565b60405180910390f35b6101b060048036038101906101ab9190610f5e565b6104a8565b6040516101bd9190610f19565b60405180910390f35b6101ce6104d7565b6040516101db9190610fcd565b60405180910390f35b6101fe60048036038101906101f99190610ebe565b6104e0565b60405161020b9190610f19565b60405180910390f35b61021c6105fe565b6040516102299190610f43565b60405180910390f35b61024c60048036038101906102479190610fe8565b61060d565b6040516102599190610f43565b60405180910390f35b61026a610655565b6040516102779190610f43565b60405180910390f35b610288610665565b6040516102959190610e03565b60405180910390f35b6102a66106f7565b6040516102b39190610f43565b60405180910390f35b6102d660048036038101906102d19190610ebe565b610705565b6040516102e39190610f19565b60405180910390f35b61030660048036038101906103019190611015565b610728565b6040516103139190610f43565b60405180910390f35b6103246107af565b6040516103319190611064565b60405180910390f35b606060038054610349906110ae565b80601f0160208091040260200160405190810160405280929190818152602001828054610375906110ae565b80156103c25780601f10610397576101008083540402835291602001916103c2565b820191906000526020600020905b8154815290600101906020018083116103a557829003601f168201915b5050505050905090565b6000806103d76107d5565b90506103e48185856107dd565b600191505092915050565b600069d3c21bcecceda100000082111561043e576040517f08c379a000000000000000000000000000000000000000000000000000000000815260040161043590611151565b60405180910390fd5b816104483061060d565b1015610489576040517f08c379a0000000000000000000000000000000000000000000000000000000008152600401610480906111e3565b60405180910390fd5b6104943084846107ef565b6001905092915050565b6000600254905090565b6000806104b36107d5565b90506104c08582856108e3565b6104cb8585856107ef565b60019150509392505050565b60006012905090565b60008073ffffffffffffffffffffffffffffffffffffffff168373ffffffffffffffffffffffffffffffffffffffff1603610550576040517f08c379a00000000000000000000000000000000000000000000000000000000081526004016105479061124f565b60405180910390fd5b8161055a3061060d565b101561059b576040517f08c379a0000000000000000000000000000000000000000000000000000000008152600401610592906112bb565b60405180910390fd5b6a0422ca8b0a00a4250000008211156105e9576040517f08c379a00000000000000000000000000000000000000000000000000000000081526004016105e090611327565b60405180910390fd5b6105f43084846107ef565b6001905092915050565b6a0422ca8b0a00a42500000081565b60008060008373ffffffffffffffffffffffffffffffffffffffff1673ffffffffffffffffffffffffffffffffffffffff168152602001908152602001600020549050919050565b6b033b2e3c9fd0803ce800000081565b606060048054610674906110ae565b80601f01602080910402602001604051908101604052809291908181526020018280546106a0906110ae565b80156106ed5780601f106106c2576101008083540402835291602001916106ed565b820191906000526020600020905b8154815290600101906020018083116106d057829003601f168201915b5050505050905090565b69d3c21bcecceda100000081565b6000806107106107d5565b905061071d8185856107ef565b600191505092915050565b6000600160008473ffffffffffffffffffffffffffffffffffffffff1673ffffffffffffffffffffffffffffffffffffffff16815260200190815260200160002060008373ffffffffffffffffffffffffffffffffffffffff1673ffffffffffffffffffffffffffffffffffffffff16815260200190815260200160002054905092915050565b600560009054906101000a900473ffffffffffffffffffffffffffffffffffffffff1681565b600033905090565b6107ea8383836001610977565b505050565b600073ffffffffffffffffffffffffffffffffffffffff168373ffffffffffffffffffffffffffffffffffffffff16036108615760006040517f96c6fd1e0000000000000000000000000000000000000000000000000000000081526004016108589190611064565b60405180910390fd5b600073ffffffffffffffffffffffffffffffffffffffff168273ffffffffffffffffffffffffffffffffffffffff16036108d35760006040517fec442f050000000000000000000000000000000000000000000000000000000081526004016108ca9190611064565b60405180910390fd5b6108de838383610b4e565b505050565b60006108ef8484610728565b90507fffffffffffffffffffffffffffffffffffffffffffffffffffffffffffffffff81146109715781811015610961578281836040517ffb8f41b200000000000000000000000000000000000000000000000000000000815260040161095893929190611347565b60405180910390fd5b61097084848484036000610977565b5b50505050565b600073ffffffffffffffffffffffffffffffffffffffff168473ffffffffffffffffffffffffffffffffffffffff16036109e95760006040517fe602df050000000000000000000000000000000000000000000000000000000081526004016109e09190611064565b60405180910390fd5b600073ffffffffffffffffffffffffffffffffffffffff168373ffffffffffffffffffffffffffffffffffffffff1603610a5b5760006040517f94280d62000000000000000000000000000000000000000000000000000000008152600401610a529190611064565b60405180910390fd5b81600160008673ffffffffffffffffffffffffffffffffffffffff1673ffffffffffffffffffffffffffffffffffffffff16815260200190815260200160002060008573ffffffffffffffffffffffffffffffffffffffff1673ffffffffffffffffffffffffffffffffffffffff168152602001908152602001600020819055508015610b48578273ffffffffffffffffffffffffffffffffffffffff168473ffffffffffffffffffffffffffffffffffffffff167f8c5be1e5ebec7d5bd14f71427d1e84f3dd0314c0f7b2291e5b200ac8c7c3b92584604051610b3f9190610f43565b60405180910390a35b50505050565b600073ffffffffffffffffffffffffffffffffffffffff168373ffffffffffffffffffffffffffffffffffffffff1603610ba0578060026000828254610b9491906113ad565b92505081905550610c73565b60008060008573ffffffffffffffffffffffffffffffffffffffff1673ffffffffffffffffffffffffffffffffffffffff16815260200190815260200160002054905081811015610c2c578381836040517fe450d38c000000000000000000000000000000000000000000000000000000008152600401610c2393929190611347565b60405180910390fd5b8181036000808673ffffffffffffffffffffffffffffffffffffffff1673ffffffffffffffffffffffffffffffffffffffff16815260200190815260200160002081905550505b600073ffffffffffffffffffffffffffffffffffffffff168273ffffffffffffffffffffffffffffffffffffffff1603610cbc5780600260008282540392505081905550610d09565b806000808473ffffffffffffffffffffffffffffffffffffffff1673ffffffffffffffffffffffffffffffffffffffff168152602001908152602001600020600082825401925050819055505b8173ffffffffffffffffffffffffffffffffffffffff168373ffffffffffffffffffffffffffffffffffffffff167fddf252ad1be2c89b69c2b068fc378daa952ba7f163c4a11628f55a4df523b3ef83604051610d669190610f43565b60405180910390a3505050565b600081519050919050565b600082825260208201905092915050565b60005b83811015610dad578082015181840152602081019050610d92565b60008484015250505050565b6000601f19601f8301169050919050565b6000610dd582610d73565b610ddf8185610d7e565b9350610def818560208601610d8f565b610df881610db9565b840191505092915050565b60006020820190508181036000830152610e1d8184610dca565b905092915050565b600080fd5b600073ffffffffffffffffffffffffffffffffffffffff82169050919050565b6000610e5582610e2a565b9050919050565b610e6581610e4a565b8114610e7057600080fd5b50565b600081359050610e8281610e5c565b92915050565b6000819050919050565b610e9b81610e88565b8114610ea657600080fd5b50565b600081359050610eb881610e92565b92915050565b60008060408385031215610ed557610ed4610e25565b5b6000610ee385828601610e73565b9250506020610ef485828601610ea9565b9150509250929050565b60008115159050919050565b610f1381610efe565b82525050565b6000602082019050610f2e6000830184610f0a565b92915050565b610f3d81610e88565b82525050565b6000602082019050610f586000830184610f34565b92915050565b600080600060608486031215610f7757610f76610e25565b5b6000610f8586828701610e73565b9350506020610f9686828701610e73565b9250506040610fa786828701610ea9565b9150509250925092565b600060ff82169050919050565b610fc781610fb1565b82525050565b6000602082019050610fe26000830184610fbe565b92915050565b600060208284031215610ffe57610ffd610e25565b5b600061100c84828501610e73565b91505092915050565b6000806040838503121561102c5761102b610e25565b5b600061103a85828601610e73565b925050602061104b85828601610e73565b9150509250929050565b61105e81610e4a565b82525050565b60006020820190506110796000830184611055565b92915050565b7f4e487b7100000000000000000000000000000000000000000000000000000000600052602260045260246000fd5b600060028204905060018216806110c657607f821691505b6020821081036110d9576110d861107f565b5b50919050565b7f5374616b696e673a20416d6f756e742065786365656473206d6178696d756d2060008201527f616c6c6f77656400000000000000000000000000000000000000000000000000602082015250565b600061113b602783610d7e565b9150611146826110df565b604082019050919050565b6000602082019050818103600083015261116a8161112e565b9050919050565b7f4661756365743a20496e73756666696369656e742062616c616e636520696e2060008201527f636f6e7472616374000000000000000000000000000000000000000000000000602082015250565b60006111cd602883610d7e565b91506111d882611171565b604082019050919050565b600060208201905081810360008301526111fc816111c0565b9050919050565b7f5472616e7366657220746f20746865207a65726f206164647265737300000000600082015250565b6000611239601c83610d7e565b915061124482611203565b602082019050919050565b600060208201905081810360008301526112688161122c565b9050919050565b7f496e73756666696369656e7420636f6e74726163742062616c616e6365000000600082015250565b60006112a5601d83610d7e565b91506112b08261126f565b602082019050919050565b600060208201905081810360008301526112d481611298565b9050919050565b7f416d6f756e742065786365656473206d6178696d756d20616c6c6f7765640000600082015250565b6000611311601e83610d7e565b915061131c826112db565b602082019050919050565b6000602082019050818103600083015261134081611304565b9050919050565b600060608201905061135c6000830186611055565b6113696020830185610f34565b6113766040830184610f34565b949350505050565b7f4e487b7100000000000000000000000000000000000000000000000000000000600052601160045260246000fd5b60006113b882610e88565b91506113c383610e88565b92508282019050808211156113db576113da61137e565b5b9291505056fea264697066735822122088c85d9249282c63c75ed4c6f8cecaef67bb87ef2d5723146abe45f3e0213dc164736f6c63430008140033",
  "linkReferences": {},
  "deployedLinkReferences": {}
}