{
  "_format": "hh-sol-artifact-1",
  "contractName": "TokenB",
  "sourceName": "contracts/TokenB.sol",
  "abi": [
    {
      "inputs": [],
      "stateMutability": "nonpayable",
      "type": "constructor"
    },
    {
      "inputs": [
        {
          "internalType": "address",
          "name": "sender",
          "type": "address"
        },
        {
          "internalType": "uint256",
          "name": "tokenId",
          "type": "uint256"
        },
        {
          "internalType": "address",
          "name": "owner",
          "type": "address"
        }
      ],
      "name": "ERC721IncorrectOwner",
      "type": "error"
    },
    {
      "inputs": [
        {
          "internalType": "address",
          "name": "operator",
          "type": "address"
        },
        {
          "internalType": "uint256",
          "name": "tokenId",
          "type": "uint256"
        }
      ],
      "name": "ERC721InsufficientApproval",
      "type": "error"
    },
    {
      "inputs": [
        {
          "internalType": "address",
          "name": "approver",
          "type": "address"
        }
      ],
      "name": "ERC721InvalidApprover",
      "type": "error"
    },
    {
      "inputs": [
        {
          "internalType": "address",
          "name": "operator",
          "type": "address"
        }
      ],
      "name": "ERC721InvalidOperator",
      "type": "error"
    },
    {
      "inputs": [
        {
          "internalType": "address",
          "name": "owner",
          "type": "address"
        }
      ],
      "name": "ERC721InvalidOwner",
      "type": "error"
    },
    {
      "inputs": [
        {
          "internalType": "address",
          "name": "receiver",
          "type": "address"
        }
      ],
      "name": "ERC721InvalidReceiver",
      "type": "error"
    },
    {
      "inputs": [
        {
          "internalType": "address",
          "name": "sender",
          "type": "address"
        }
      ],
      "name": "ERC721InvalidSender",
      "type": "error"
    },
    {
      "inputs": [
        {
          "internalType": "uint256",
          "name": "tokenId",
          "type": "uint256"
        }
      ],
      "name": "ERC721NonexistentToken",
      "type": "error"
    },
    {
      "anonymous": false,
      "inputs": [
        {
          "indexed": true,
          "internalType": "address",
          "name": "owner",
          "type": "address"
        },
        {
          "indexed": true,
          "internalType": "address",
          "name": "approved",
          "type": "address"
        },
        {
          "indexed": true,
          "internalType": "uint256",
          "name": "tokenId",
          "type": "uint256"
        }
      ],
      "name": "Approval",
      "type": "event"
    },
    {
      "anonymous": false,
      "inputs": [
        {
          "indexed": true,
          "internalType": "address",
          "name": "owner",
          "type": "address"
        },
        {
          "indexed": true,
          "internalType": "address",
          "name": "operator",
          "type": "address"
        },
        {
          "indexed": false,
          "internalType": "bool",
          "name": "approved",
          "type": "bool"
        }
      ],
      "name": "ApprovalForAll",
      "type": "event"
    },
    {
      "anonymous": false,
      "inputs": [
        {
          "indexed": true,
          "internalType": "address",
          "name": "from",
          "type": "address"
        },
        {
          "indexed": true,
          "internalType": "address",
          "name": "to",
          "type": "address"
        },
        {
          "indexed": true,
          "internalType": "uint256",
          "name": "tokenId",
          "type": "uint256"
        }
      ],
      "name": "Transfer",
      "type": "event"
    },
    {
      "inputs": [
        {
          "internalType": "address",
          "name": "to",
          "type": "address"
        },
        {
          "internalType": "uint256",
          "name": "tokenId",
          "type": "uint256"
        }
      ],
      "name": "approve",
      "outputs": [],
      "stateMutability": "nonpayable",
      "type": "function"
    },
    {
      "inputs": [
        {
          "internalType": "address",
          "name": "owner",
          "type": "address"
        }
      ],
      "name": "balanceOf",
      "outputs": [
        {
          "internalType": "uint256",
          "name": "",
          "type": "uint256"
        }
      ],
      "stateMutability": "view",
      "type": "function"
    },
    {
      "inputs": [
        {
          "internalType": "uint256",
          "name": "tokenId",
          "type": "uint256"
        }
      ],
      "name": "getApproved",
      "outputs": [
        {
          "internalType": "address",
          "name": "",
          "type": "address"
        }
      ],
      "stateMutability": "view",
      "type": "function"
    },
    {
      "inputs": [
        {
          "internalType": "address",
          "name": "user",
          "type": "address"
        }
      ],
      "name": "getNFTCount",
      "outputs": [
        {
          "internalType": "uint256",
          "name": "",
          "type": "uint256"
        }
      ],
      "stateMutability": "view",
      "type": "function"
    },
    {
      "inputs": [
        {
          "internalType": "address",
          "name": "owner",
          "type": "address"
        },
        {
          "internalType": "address",
          "name": "operator",
          "type": "address"
        }
      ],
      "name": "isApprovedForAll",
      "outputs": [
        {
          "internalType": "bool",
          "name": "",
          "type": "bool"
        }
      ],
      "stateMutability": "view",
      "type": "function"
    },
    {
      "inputs": [
        {
          "internalType": "address",
          "name": "recipient",
          "type": "address"
        }
      ],
      "name": "mintNFT",
      "outputs": [
        {
          "internalType": "uint256",
          "name": "",
          "type": "uint256"
        }
      ],
      "stateMutability": "nonpayable",
      "type": "function"
    },
    {
      "inputs": [
        {
          "internalType": "address",
          "name": "",
          "type": "address"
        },
        {
          "internalType": "uint256",
          "name": "",
          "type": "uint256"
        }
      ],
      "name": "myNFT",
      "outputs": [
        {
          "internalType": "uint256",
          "name": "",
          "type": "uint256"
        }
      ],
      "stateMutability": "view",
      "type": "function"
    },
    {
      "inputs": [],
      "name": "name",
      "outputs": [
        {
          "internalType": "string",
          "name": "",
          "type": "string"
        }
      ],
      "stateMutability": "view",
      "type": "function"
    },
    {
      "inputs": [],
      "name": "nextTokenId",
      "outputs": [
        {
          "internalType": "uint256",
          "name": "",
          "type": "uint256"
        }
      ],
      "stateMutability": "view",
      "type": "function"
    },
    {
      "inputs": [
        {
          "internalType": "address",
          "name": "",
          "type": "address"
        }
      ],
      "name": "nftCounter",
      "outputs": [
        {
          "internalType": "uint256",
          "name": "",
          "type": "uint256"
        }
      ],
      "stateMutability": "view",
      "type": "function"
    },
    {
      "inputs": [
        {
          "internalType": "uint256",
          "name": "tokenId",
          "type": "uint256"
        }
      ],
      "name": "ownerOf",
      "outputs": [
        {
          "internalType": "address",
          "name": "",
          "type": "address"
        }
      ],
      "stateMutability": "view",
      "type": "function"
    },
    {
      "inputs": [
        {
          "internalType": "address",
          "name": "from",
          "type": "address"
        },
        {
          "internalType": "address",
          "name": "to",
          "type": "address"
        },
        {
          "internalType": "uint256",
          "name": "tokenId",
          "type": "uint256"
        }
      ],
      "name": "safeTransferFrom",
      "outputs": [],
      "stateMutability": "nonpayable",
      "type": "function"
    },
    {
      "inputs": [
        {
          "internalType": "address",
          "name": "from",
          "type": "address"
        },
        {
          "internalType": "address",
          "name": "to",
          "type": "address"
        },
        {
          "internalType": "uint256",
          "name": "tokenId",
          "type": "uint256"
        },
        {
          "internalType": "bytes",
          "name": "data",
          "type": "bytes"
        }
      ],
      "name": "safeTransferFrom",
      "outputs": [],
      "stateMutability": "nonpayable",
      "type": "function"
    },
    {
      "inputs": [
        {
          "internalType": "address",
          "name": "operator",
          "type": "address"
        },
        {
          "internalType": "bool",
          "name": "approved",
          "type": "bool"
        }
      ],
      "name": "setApprovalForAll",
      "outputs": [],
      "stateMutability": "nonpayable",
      "type": "function"
    },
    {
      "inputs": [
        {
          "internalType": "bytes4",
          "name": "interfaceId",
          "type": "bytes4"
        }
      ],
      "name": "supportsInterface",
      "outputs": [
        {
          "internalType": "bool",
          "name": "",
          "type": "bool"
        }
      ],
      "stateMutability": "view",
      "type": "function"
    },
    {
      "inputs": [],
      "name": "symbol",
      "outputs": [
        {
          "internalType": "string",
          "name": "",
          "type": "string"
        }
      ],
      "stateMutability": "view",
      "type": "function"
    },
    {
      "inputs": [
        {
          "internalType": "uint256",
          "name": "tokenId",
          "type": "uint256"
        }
      ],
      "name": "tokenURI",
      "outputs": [
        {
          "internalType": "string",
          "name": "",
          "type": "string"
        }
      ],
      "stateMutability": "view",
      "type": "function"
    },
    {
      "inputs": [
        {
          "internalType": "address",
          "name": "from",
          "type": "address"
        },
        {
          "internalType": "address",
          "name": "to",
          "type": "address"
        },
        {
          "internalType": "uint256",
          "name": "tokenId",
          "type": "uint256"
        }
      ],
      "name": "transferFrom",
      "outputs": [],
      "stateMutability": "nonpayable",
      "type": "function"
    }
  ],
  "bytecode": "0x60806040523480156200001157600080fd5b506040518060400160405280600681526020017f546f6b656e4200000000000000000000000000000000000000000000000000008152506040518060400160405280600381526020017f544b42000000000000000000000000000000000000000000000000000000000081525081600090816200008f919062000324565b508060019081620000a1919062000324565b5050506200040b565b600081519050919050565b7f4e487b7100000000000000000000000000000000000000000000000000000000600052604160045260246000fd5b7f4e487b7100000000000000000000000000000000000000000000000000000000600052602260045260246000fd5b600060028204905060018216806200012c57607f821691505b602082108103620001425762000141620000e4565b5b50919050565b60008190508160005260206000209050919050565b60006020601f8301049050919050565b600082821b905092915050565b600060088302620001ac7fffffffffffffffffffffffffffffffffffffffffffffffffffffffffffffffff826200016d565b620001b886836200016d565b95508019841693508086168417925050509392505050565b6000819050919050565b6000819050919050565b600062000205620001ff620001f984620001d0565b620001da565b620001d0565b9050919050565b6000819050919050565b6200022183620001e4565b6200023962000230826200020c565b8484546200017a565b825550505050565b600090565b6200025062000241565b6200025d81848462000216565b505050565b5b8181101562000285576200027960008262000246565b60018101905062000263565b5050565b601f821115620002d4576200029e8162000148565b620002a9846200015d565b81016020851015620002b9578190505b620002d1620002c8856200015d565b83018262000262565b50505b505050565b600082821c905092915050565b6000620002f960001984600802620002d9565b1980831691505092915050565b6000620003148383620002e6565b9150826002028217905092915050565b6200032f82620000aa565b67ffffffffffffffff8111156200034b576200034a620000b5565b5b62000357825462000113565b6200036482828562000289565b600060209050601f8311600181146200039c576000841562000387578287015190505b62000393858262000306565b86555062000403565b601f198416620003ac8662000148565b60005b82811015620003d657848901518255600182019150602085019450602081019050620003af565b86831015620003f65784890151620003f2601f891682620002e6565b8355505b6001600288020188555050505b505050505050565b6120d1806200041b6000396000f3fe608060405234801561001057600080fd5b50600436106101165760003560e01c80636352211e116100a2578063a22cb46511610071578063a22cb46514610319578063b88d4fde14610335578063c87b56dd14610351578063e985e9c514610381578063f41d3f69146103b157610116565b80636352211e1461027d57806370a08231146102ad57806375794a3c146102dd57806395d89b41146102fb57610116565b80630980ea8c116100e95780630980ea8c146101b557806323b872dd146101e55780633c5a8b631461020157806342842e0e1461023157806354ba0f271461024d57610116565b806301ffc9a71461011b57806306fdde031461014b578063081812fc14610169578063095ea7b314610199575b600080fd5b610135600480360381019061013091906118a4565b6103e1565b60405161014291906118ec565b60405180910390f35b6101536104c3565b6040516101609190611997565b60405180910390f35b610183600480360381019061017e91906119ef565b610555565b6040516101909190611a5d565b60405180910390f35b6101b360048036038101906101ae9190611aa4565b610571565b005b6101cf60048036038101906101ca9190611ae4565b610587565b6040516101dc9190611b20565b60405180910390f35b6101ff60048036038101906101fa9190611b3b565b61059f565b005b61021b60048036038101906102169190611aa4565b6106a1565b6040516102289190611b20565b60405180910390f35b61024b60048036038101906102469190611b3b565b6106d2565b005b61026760048036038101906102629190611ae4565b6106f2565b6040516102749190611b20565b60405180910390f35b610297600480360381019061029291906119ef565b6107e0565b6040516102a49190611a5d565b60405180910390f35b6102c760048036038101906102c29190611ae4565b6107f2565b6040516102d49190611b20565b60405180910390f35b6102e56108ac565b6040516102f29190611b20565b60405180910390f35b6103036108b2565b6040516103109190611997565b60405180910390f35b610333600480360381019061032e9190611bba565b610944565b005b61034f600480360381019061034a9190611d2f565b61095a565b005b61036b600480360381019061036691906119ef565b610977565b6040516103789190611997565b60405180910390f35b61039b60048036038101906103969190611db2565b6109e0565b6040516103a891906118ec565b60405180910390f35b6103cb60048036038101906103c69190611ae4565b610a74565b6040516103d89190611b20565b60405180910390f35b60007f80ac58cd000000000000000000000000000000000000000000000000000000007bffffffffffffffffffffffffffffffffffffffffffffffffffffffff1916827bffffffffffffffffffffffffffffffffffffffffffffffffffffffff191614806104ac57507f5b5e139f000000000000000000000000000000000000000000000000000000007bffffffffffffffffffffffffffffffffffffffffffffffffffffffff1916827bffffffffffffffffffffffffffffffffffffffffffffffffffffffff1916145b806104bc57506104bb82610abd565b5b9050919050565b6060600080546104d290611e21565b80601f01602080910402602001604051908101604052809291908181526020018280546104fe90611e21565b801561054b5780601f106105205761010080835404028352916020019161054b565b820191906000526020600020905b81548152906001019060200180831161052e57829003601f168201915b5050505050905090565b600061056082610b27565b5061056a82610baf565b9050919050565b610583828261057e610bec565b610bf4565b5050565b60076020528060005260406000206000915090505481565b600073ffffffffffffffffffffffffffffffffffffffff168273ffffffffffffffffffffffffffffffffffffffff16036106115760006040517f64a0ae920000000000000000000000000000000000000000000000000000000081526004016106089190611a5d565b60405180910390fd5b60006106258383610620610bec565b610c06565b90508373ffffffffffffffffffffffffffffffffffffffff168173ffffffffffffffffffffffffffffffffffffffff161461069b578382826040517f64283d7b00000000000000000000000000000000000000000000000000000000815260040161069293929190611e52565b60405180910390fd5b50505050565b600860205281600052604060002081815481106106bd57600080fd5b90600052602060002001600091509150505481565b6106ed8383836040518060200160405280600081525061095a565b505050565b60008060065490506107048382610e20565b600860008473ffffffffffffffffffffffffffffffffffffffff1673ffffffffffffffffffffffffffffffffffffffff168152602001908152602001600020819080600181540180825580915050600190039060005260206000200160009091909190915055600760008473ffffffffffffffffffffffffffffffffffffffff1673ffffffffffffffffffffffffffffffffffffffff16815260200190815260200160002060008154809291906107ba90611eb8565b9190505550600660008154809291906107d290611eb8565b919050555080915050919050565b60006107eb82610b27565b9050919050565b60008073ffffffffffffffffffffffffffffffffffffffff168273ffffffffffffffffffffffffffffffffffffffff16036108655760006040517f89c62b6400000000000000000000000000000000000000000000000000000000815260040161085c9190611a5d565b60405180910390fd5b600360008373ffffffffffffffffffffffffffffffffffffffff1673ffffffffffffffffffffffffffffffffffffffff168152602001908152602001600020549050919050565b60065481565b6060600180546108c190611e21565b80601f01602080910402602001604051908101604052809291908181526020018280546108ed90611e21565b801561093a5780601f1061090f5761010080835404028352916020019161093a565b820191906000526020600020905b81548152906001019060200180831161091d57829003601f168201915b5050505050905090565b61095661094f610bec565b8383610e3e565b5050565b61096584848461059f565b61097184848484610fad565b50505050565b606061098282610b27565b50600061098d611164565b905060008151116109ad57604051806020016040528060008152506109d8565b806109b78461117b565b6040516020016109c8929190611f3c565b6040516020818303038152906040525b915050919050565b6000600560008473ffffffffffffffffffffffffffffffffffffffff1673ffffffffffffffffffffffffffffffffffffffff16815260200190815260200160002060008373ffffffffffffffffffffffffffffffffffffffff1673ffffffffffffffffffffffffffffffffffffffff16815260200190815260200160002060009054906101000a900460ff16905092915050565b6000600760008373ffffffffffffffffffffffffffffffffffffffff1673ffffffffffffffffffffffffffffffffffffffff168152602001908152602001600020549050919050565b60007f01ffc9a7000000000000000000000000000000000000000000000000000000007bffffffffffffffffffffffffffffffffffffffffffffffffffffffff1916827bffffffffffffffffffffffffffffffffffffffffffffffffffffffff1916149050919050565b600080610b3383611249565b9050600073ffffffffffffffffffffffffffffffffffffffff168173ffffffffffffffffffffffffffffffffffffffff1603610ba657826040517f7e273289000000000000000000000000000000000000000000000000000000008152600401610b9d9190611b20565b60405180910390fd5b80915050919050565b60006004600083815260200190815260200160002060009054906101000a900473ffffffffffffffffffffffffffffffffffffffff169050919050565b600033905090565b610c018383836001611286565b505050565b600080610c1284611249565b9050600073ffffffffffffffffffffffffffffffffffffffff168373ffffffffffffffffffffffffffffffffffffffff1614610c5457610c5381848661144b565b5b600073ffffffffffffffffffffffffffffffffffffffff168173ffffffffffffffffffffffffffffffffffffffff1614610ce557610c96600085600080611286565b6001600360008373ffffffffffffffffffffffffffffffffffffffff1673ffffffffffffffffffffffffffffffffffffffff168152602001908152602001600020600082825403925050819055505b600073ffffffffffffffffffffffffffffffffffffffff168573ffffffffffffffffffffffffffffffffffffffff1614610d68576001600360008773ffffffffffffffffffffffffffffffffffffffff1673ffffffffffffffffffffffffffffffffffffffff168152602001908152602001600020600082825401925050819055505b846002600086815260200190815260200160002060006101000a81548173ffffffffffffffffffffffffffffffffffffffff021916908373ffffffffffffffffffffffffffffffffffffffff160217905550838573ffffffffffffffffffffffffffffffffffffffff168273ffffffffffffffffffffffffffffffffffffffff167fddf252ad1be2c89b69c2b068fc378daa952ba7f163c4a11628f55a4df523b3ef60405160405180910390a4809150509392505050565b610e3a82826040518060200160405280600081525061150f565b5050565b600073ffffffffffffffffffffffffffffffffffffffff168273ffffffffffffffffffffffffffffffffffffffff1603610eaf57816040517f5b08ba18000000000000000000000000000000000000000000000000000000008152600401610ea69190611a5d565b60405180910390fd5b80600560008573ffffffffffffffffffffffffffffffffffffffff1673ffffffffffffffffffffffffffffffffffffffff16815260200190815260200160002060008473ffffffffffffffffffffffffffffffffffffffff1673ffffffffffffffffffffffffffffffffffffffff16815260200190815260200160002060006101000a81548160ff0219169083151502179055508173ffffffffffffffffffffffffffffffffffffffff168373ffffffffffffffffffffffffffffffffffffffff167f17307eab39ab6107e8899845ad3d59bd9653f200f220920489ca2b5937696c3183604051610fa091906118ec565b60405180910390a3505050565b60008373ffffffffffffffffffffffffffffffffffffffff163b111561115e578273ffffffffffffffffffffffffffffffffffffffff1663150b7a02610ff1610bec565b8685856040518563ffffffff1660e01b81526004016110139493929190611fb5565b6020604051808303816000875af192505050801561104f57506040513d601f19601f8201168201806040525081019061104c9190612016565b60015b6110d3573d806000811461107f576040519150601f19603f3d011682016040523d82523d6000602084013e611084565b606091505b5060008151036110cb57836040517f64a0ae920000000000000000000000000000000000000000000000000000000081526004016110c29190611a5d565b60405180910390fd5b805181602001fd5b63150b7a0260e01b7bffffffffffffffffffffffffffffffffffffffffffffffffffffffff1916817bffffffffffffffffffffffffffffffffffffffffffffffffffffffff19161461115c57836040517f64a0ae920000000000000000000000000000000000000000000000000000000081526004016111539190611a5d565b60405180910390fd5b505b50505050565b606060405180602001604052806000815250905090565b60606000600161118a8461152b565b01905060008167ffffffffffffffff8111156111a9576111a8611c04565b5b6040519080825280601f01601f1916602001820160405280156111db5781602001600182028036833780820191505090505b509050600082602001820190505b60011561123e578080600190039150507f3031323334353637383961626364656600000000000000000000000000000000600a86061a8153600a858161123257611231612043565b5b049450600085036111e9575b819350505050919050565b60006002600083815260200190815260200160002060009054906101000a900473ffffffffffffffffffffffffffffffffffffffff169050919050565b80806112bf5750600073ffffffffffffffffffffffffffffffffffffffff168273ffffffffffffffffffffffffffffffffffffffff1614155b156113f35760006112cf84610b27565b9050600073ffffffffffffffffffffffffffffffffffffffff168373ffffffffffffffffffffffffffffffffffffffff161415801561133a57508273ffffffffffffffffffffffffffffffffffffffff168173ffffffffffffffffffffffffffffffffffffffff1614155b801561134d575061134b81846109e0565b155b1561138f57826040517fa9fbf51f0000000000000000000000000000000000000000000000000000000081526004016113869190611a5d565b60405180910390fd5b81156113f157838573ffffffffffffffffffffffffffffffffffffffff168273ffffffffffffffffffffffffffffffffffffffff167f8c5be1e5ebec7d5bd14f71427d1e84f3dd0314c0f7b2291e5b200ac8c7c3b92560405160405180910390a45b505b836004600085815260200190815260200160002060006101000a81548173ffffffffffffffffffffffffffffffffffffffff021916908373ffffffffffffffffffffffffffffffffffffffff16021790555050505050565b61145683838361167e565b61150a57600073ffffffffffffffffffffffffffffffffffffffff168373ffffffffffffffffffffffffffffffffffffffff16036114cb57806040517f7e2732890000000000000000000000000000000000000000000000000000000081526004016114c29190611b20565b60405180910390fd5b81816040517f177e802f000000000000000000000000000000000000000000000000000000008152600401611501929190612072565b60405180910390fd5b505050565b611519838361173f565b6115266000848484610fad565b505050565b600080600090507a184f03e93ff9f4daa797ed6e38ed64bf6a1f0100000000000000008310611589577a184f03e93ff9f4daa797ed6e38ed64bf6a1f010000000000000000838161157f5761157e612043565b5b0492506040810190505b6d04ee2d6d415b85acef810000000083106115c6576d04ee2d6d415b85acef810000000083816115bc576115bb612043565b5b0492506020810190505b662386f26fc1000083106115f557662386f26fc1000083816115eb576115ea612043565b5b0492506010810190505b6305f5e100831061161e576305f5e100838161161457611613612043565b5b0492506008810190505b612710831061164357612710838161163957611638612043565b5b0492506004810190505b60648310611666576064838161165c5761165b612043565b5b0492506002810190505b600a8310611675576001810190505b80915050919050565b60008073ffffffffffffffffffffffffffffffffffffffff168373ffffffffffffffffffffffffffffffffffffffff161415801561173657508273ffffffffffffffffffffffffffffffffffffffff168473ffffffffffffffffffffffffffffffffffffffff1614806116f757506116f684846109e0565b5b8061173557508273ffffffffffffffffffffffffffffffffffffffff1661171d83610baf565b73ffffffffffffffffffffffffffffffffffffffff16145b5b90509392505050565b600073ffffffffffffffffffffffffffffffffffffffff168273ffffffffffffffffffffffffffffffffffffffff16036117b15760006040517f64a0ae920000000000000000000000000000000000000000000000000000000081526004016117a89190611a5d565b60405180910390fd5b60006117bf83836000610c06565b9050600073ffffffffffffffffffffffffffffffffffffffff168173ffffffffffffffffffffffffffffffffffffffff16146118335760006040517f73c6ac6e00000000000000000000000000000000000000000000000000000000815260040161182a9190611a5d565b60405180910390fd5b505050565b6000604051905090565b600080fd5b600080fd5b60007fffffffff0000000000000000000000000000000000000000000000000000000082169050919050565b6118818161184c565b811461188c57600080fd5b50565b60008135905061189e81611878565b92915050565b6000602082840312156118ba576118b9611842565b5b60006118c88482850161188f565b91505092915050565b60008115159050919050565b6118e6816118d1565b82525050565b600060208201905061190160008301846118dd565b92915050565b600081519050919050565b600082825260208201905092915050565b60005b83811015611941578082015181840152602081019050611926565b60008484015250505050565b6000601f19601f8301169050919050565b600061196982611907565b6119738185611912565b9350611983818560208601611923565b61198c8161194d565b840191505092915050565b600060208201905081810360008301526119b1818461195e565b905092915050565b6000819050919050565b6119cc816119b9565b81146119d757600080fd5b50565b6000813590506119e9816119c3565b92915050565b600060208284031215611a0557611a04611842565b5b6000611a13848285016119da565b91505092915050565b600073ffffffffffffffffffffffffffffffffffffffff82169050919050565b6000611a4782611a1c565b9050919050565b611a5781611a3c565b82525050565b6000602082019050611a726000830184611a4e565b92915050565b611a8181611a3c565b8114611a8c57600080fd5b50565b600081359050611a9e81611a78565b92915050565b60008060408385031215611abb57611aba611842565b5b6000611ac985828601611a8f565b9250506020611ada858286016119da565b9150509250929050565b600060208284031215611afa57611af9611842565b5b6000611b0884828501611a8f565b91505092915050565b611b1a816119b9565b82525050565b6000602082019050611b356000830184611b11565b92915050565b600080600060608486031215611b5457611b53611842565b5b6000611b6286828701611a8f565b9350506020611b7386828701611a8f565b9250506040611b84868287016119da565b9150509250925092565b611b97816118d1565b8114611ba257600080fd5b50565b600081359050611bb481611b8e565b92915050565b60008060408385031215611bd157611bd0611842565b5b6000611bdf85828601611a8f565b9250506020611bf085828601611ba5565b9150509250929050565b600080fd5b600080fd5b7f4e487b7100000000000000000000000000000000000000000000000000000000600052604160045260246000fd5b611c3c8261194d565b810181811067ffffffffffffffff82111715611c5b57611c5a611c04565b5b80604052505050565b6000611c6e611838565b9050611c7a8282611c33565b919050565b600067ffffffffffffffff821115611c9a57611c99611c04565b5b611ca38261194d565b9050602081019050919050565b82818337600083830152505050565b6000611cd2611ccd84611c7f565b611c64565b905082815260208101848484011115611cee57611ced611bff565b5b611cf9848285611cb0565b509392505050565b600082601f830112611d1657611d15611bfa565b5b8135611d26848260208601611cbf565b91505092915050565b60008060008060808587031215611d4957611d48611842565b5b6000611d5787828801611a8f565b9450506020611d6887828801611a8f565b9350506040611d79878288016119da565b925050606085013567ffffffffffffffff811115611d9a57611d99611847565b5b611da687828801611d01565b91505092959194509250565b60008060408385031215611dc957611dc8611842565b5b6000611dd785828601611a8f565b9250506020611de885828601611a8f565b9150509250929050565b7f4e487b7100000000000000000000000000000000000000000000000000000000600052602260045260246000fd5b60006002820490506001821680611e3957607f821691505b602082108103611e4c57611e4b611df2565b5b50919050565b6000606082019050611e676000830186611a4e565b611e746020830185611b11565b611e816040830184611a4e565b949350505050565b7f4e487b7100000000000000000000000000000000000000000000000000000000600052601160045260246000fd5b6000611ec3826119b9565b91507fffffffffffffffffffffffffffffffffffffffffffffffffffffffffffffffff8203611ef557611ef4611e89565b5b600182019050919050565b600081905092915050565b6000611f1682611907565b611f208185611f00565b9350611f30818560208601611923565b80840191505092915050565b6000611f488285611f0b565b9150611f548284611f0b565b91508190509392505050565b600081519050919050565b600082825260208201905092915050565b6000611f8782611f60565b611f918185611f6b565b9350611fa1818560208601611923565b611faa8161194d565b840191505092915050565b6000608082019050611fca6000830187611a4e565b611fd76020830186611a4e565b611fe46040830185611b11565b8181036060830152611ff68184611f7c565b905095945050505050565b60008151905061201081611878565b92915050565b60006020828403121561202c5761202b611842565b5b600061203a84828501612001565b91505092915050565b7f4e487b7100000000000000000000000000000000000000000000000000000000600052601260045260246000fd5b60006040820190506120876000830185611a4e565b6120946020830184611b11565b939250505056fea26469706673582212201b12313b56c9611c967cd01108780d409eec4dafe5c7e5c85bff66bb09449a9864736f6c63430008140033",
  "linkReferences": {},
  "deployedLinkReferences": {}
}